:100000000C94F1000C9419010C9419010C94190131
:100010000C9419010C9419010C9419010C941901F8
:100020000C9419010C9419010C945B070C94CD07E6
:100030000C9419010C9419010C9419010C941901D8
:100040000C9419010C9419010C9419010C941901C8
:100050000C9419010C9419010C9419010C941107BA
:100060000C9419010C9419010C9419010C941901A8
:100070000C9419010C9419010C9419010C94190198
:100080000C9419010C9419010C9419010C94190188
:100090000C9496030C9419010C9419010C941901F9
:1000A0000C9419010C9419010C941901A80BCE0C95
:1000B000360BCE0CCE0CCE0C450BCE0C720BCE0CF0
:1000C000CE0C630BCE0CCE0CCE0CCE0CCE0C270B74
:1000D000540BCE0CCE0C970BB80CBB0CBE0CC10C49
:1000E000C40CC70CCA0CD906DC06CB06CF06D30657
:1000F000FD06FD06FD06E006E406E806EE06F2064D
:10010000FD06F806080B00020202010009040000C7
:100110000102020000052400100105240101010470
:10012000240206052406000107058103100040098A
:10013000040100020A000000070502024000000757
:100140000583024000000403090412010002EF02CB
:1001500001404123418000010102030141726475A5
:10016000696E6F204C4C430041726475696E6F205C
:1001700059756E0000000000250028002B002E009D
:10018000310004040404040304050202020204030F
:100190000202020206060606060604040202020421
:1001A0000404080201104080401020408040800874
:1001B00002040180402010020110801020404020E5
:1001C0000000000200090F0000030401000C000001
:1001D000000000000000000000000000000000001F
:1001E000D90C11241FBECFEFDAE0DEBFCDBF11E086
:1001F000A0E0B1E0E4ECFAE102C005900D92AA386B
:10020000B107D9F722E0AAE8B1E001C01D92AA3DEA
:10021000B207E1F710E0C1EFD0E004C02197FE0182
:100220000E944E0DC03FD107C9F70E940A0A0C94E4
:10023000600D0C940000CF92DF92EF92FF920F932B
:100240001F93CF93DF936C017A018B01C0E0D0E064
:10025000CE15DF0589F0D8016D918D01D601ED91A4
:10026000FC910190F081E02DC6010995892B11F4D4
:100270007E0102C02196ECCFC701DF91CF911F9183
:100280000F91FF90EF90DF90CF900895E0918C0157
:10029000F0918D01309729F010924502109267027B
:1002A00009940895AC01E0918A01F0918B01309797
:1002B000E1F09091D6018091D5019817B0F090E0CF
:1002C000292F30E02617370754F4DA01A20FB31FA5
:1002D0008C91D901A952BE4F8C939F5FF1CF1092A0
:1002E000D6016093D501CB0109940895CF93DF9394
:1002F0001F92CDB7DEB76983DC01ED91FC910280DE
:10030000F381E02D41E050E0BE016F5F7F4F099522
:100310000F90DF91CF91089583E08093E900809161
:10032000F200882319F08AE38093E8000895FC0125
:100330008485958597FD0BC09FB7F89482E08093E4
:10034000E9008091F2009FBF90E0019608959FB769
:10035000F89482E08093E9008091F2009FBF90E0E2
:10036000089585ED8093BC008091BC0084FDFCCF96
:100370001092430208954091AE01262F30E0240FE1
:10038000311D21323105DCF4209143022430C9F4BF
:10039000FC0180E090E0861758F43091AE01219185
:1003A000DC01A257BE4FA30FB11D2C930196F3CFD2
:1003B0008091AE01680F6093AE0180E0089581E006
:1003C000089582E008950895E091D6018091D501C5
:1003D000E81730F4F0E0E952FE4F808190E0089594
:1003E0008FEF9FEF08959091D6018091D5019817D6
:1003F00050F4E92FF0E0E952FE4F208130E09F5F9A
:100400009093D60102C02FEF3FEFC901089580916C
:10041000D50190E02091D601821B91090895CF92D9
:10042000DF92EF92FF920F931F93CF93DF937C01A4
:10043000262F972F8A0180914402882391F0C62F9E
:10044000D72F6E01C40ED51ECC15DD0571F0699154
:10045000D701ED91FC910190F081E02DC701099544
:10046000F3CF642F822F0E94BB01C801DF91CF918F
:100470001F910F91FF90EF90DF90CF900895CF9351
:10048000DF931F92CDB7DEB7698320914402222308
:10049000D1F020916702203240F021E030E0FC01F1
:1004A0003383228380E090E015C080914502E82FDD
:1004B000F0E0EA5BFD4F998190838F5F8093450266
:1004C0008093670205C061E0CE0101960E94BB01E6
:1004D00081E090E00F90DF91CF910895089580E042
:1004E00090E00895CF93C82F81E08093440288E67E
:1004F00080936602109245021092670288EB92E0A8
:100500000E943F028C2F6AE00E94200D692F20E19B
:10051000829F600D112488EB92E00E943F0281E0EF
:10052000CF910C94AB058F929F92AF92BF92CF92D6
:10053000DF92EF92FF920F931F93CF93DF936C01A3
:100540005B017A0180910D01882309F456C08091E6
:100550001C02882309F451C08091190280FF05C054
:100560008091E00082608093E000E70110E00AEFF4
:1005700083E0882E9AE3992E2097B1F10E9483069A
:10058000811105C00150C9F10E949406F5CF282FB2
:1005900030E0C217D3070CF48C2F4FB7F894809239
:1005A000E9009091E80095FF1DC0282F30E0C21BA4
:1005B000D30BF501982F915020F081918093F10099
:1005C000FACFA20EB31E112319F09092E80009C0D1
:1005D0008091E80085FD06C09092E80011E0209728
:1005E00009F010E04FBFC8CF1111C8CF5D9884E665
:1005F00080931A021E141F0444F081E090E0F6017B
:100600009383828380E090E001C0C701DF91CF91A6
:100610001F910F91FF90EF90DF90CF90BF90AF9020
:100620009F908F9008950E94830690E008950F9305
:100630001F93CF93DF931F92CDB7DEB78C01FC01E0
:100640008485958597FF0EC0CE0101960E945906BC
:10065000019719F4298130E002C02FEF3FEFF80134
:1006600035872487F801848595850F90DF91CF9198
:100670001F910F910895CF93DF931F92CDB7DEB7EF
:10068000FC018485958597FD05C02FEF3FEF3587E9
:1006900024870BC0CE0101960E945906019719F4D8
:1006A000898190E002C08FEF9FEF0F90DF91CF9193
:1006B00008950E94540D4091160250911702209106
:1006C00014023091150242175307B4F49091E800D8
:1006D0009570E1F39091E80092FD19C08093F100CC
:1006E000809116029091170201968F739927892B9A
:1006F00019F48EEF8093E800809116029091170212
:100700000196909317028093160281E0089580E08D
:100710000895615030F02091F100FC012083019692
:10072000F8CF289884E680931B0208951F920F92B9
:100730000FB60F9211242F933F934F935F936F93B4
:100740007F938F939F93AF93BF93EF93FF9380918A
:10075000B900887F803609F49CC068F5883209F4B6
:100760005BC090F4803109F454C038F4882309F454
:10077000F6C0883009F44DC0F6C0883109F44CC089
:10078000803209F45DC0EFC0803409F468C048F4D9
:10079000803309F455C0883309F0E5C080934102E5
:1007A000D8C0803509F44FC0883509F45DC088345D
:1007B00009F0D9C0D6C0883909F4C7C0A8F4883771
:1007C00009F467C038F4883609F463C0803709F447
:1007D00060C0C9C0883809F4B8C0803909F45FC066
:1007E000803809F0C0C05BC0803B09F486C038F493
:1007F000803A09F466C0883A09F47FC0B4C0803CEE
:1008000009F4A7C0883C09F4A4C0883B09F48AC055
:10081000AAC080911E0210C09091400280913F02B8
:10082000981770F5E091400281E08E0F80934002AE
:10083000F0E0E15EFD4F80818093BB0085EC86C0D7
:10084000809341028EC0E091400281E08E0F809340
:1008500040028091BB00F0E0E15EFD4F808390910B
:10086000400280913F026EC0E091400281E08E0F15
:10087000809340028091BB00F0E0E15EFD4F8083F9
:100880008091420281116DC081E080931D0284EA53
:1008900061C083E0809343021092D001CFCF80915A
:1008A000D001803208F051C0E091D00181E08E0F7C
:1008B0008093D0018091BB00F0E0E055FE4F808333
:1008C000BDCF85EC8093BC00109243028091D00193
:1008D000803230F4E091D001F0E0E055FE4F10821C
:1008E0006091D00170E0E091D101F091D20180EBF4
:1008F00091E009951092D00136C084E080934302C4
:100900001092AF011092AE01E091D301F091D401A9
:1009100009958091AE01811105C081E08093AE01FF
:1009200010928E01E091AF0181E08E0F8093AF01B4
:10093000F0E0E257FE4F80818093BB009091AF01C1
:100940008091AE01981708F479CF85E88093BC00B8
:100950000AC085EC8093BC001092430204C0109240
:1009600041020E94B101FF91EF91BF91AF919F9120
:100970008F917F916F915F914F913F912F910F9048
:100980000FBE0F901F9018958091D20281110DC05B
:1009900082E08093CE0284E08093CF021092D10255
:1009A0001092D00281E08093D2028EEC92E0089502
:1009B0003FB7F8948091CA029091CB02A091CC02EB
:1009C000B091CD0226B5A89B05C02F3F19F0019626
:1009D000A11DB11D3FBFBA2FA92F982F8827820FC5
:1009E000911DA11DB11DBC01CD0142E0660F771F15
:1009F000881F991F4A95D1F70895BC01009791F07F
:100A0000FC0101900020E9F73197AF01481B590B19
:100A1000E0916802F09169020280F381E02D88E69E
:100A200092E0099480E090E00895CF92DF92EF92F7
:100A3000FF920F931F93CF93DF931F92CDB7DEB733
:100A4000182F062FE42E862F880F8E5F99830E9421
:100A50005B0383E00E945B03F12EC12E9981D92EA6
:100A60008C2D8F19801798F4F601E7FE02C084914F
:100A700001C080810E945B03182F80E00E945B030D
:100A80008123FFEFCF1ADF0A8111EACF01C081E095
:100A90000F90DF91CF911F910F91FF90EF90DF901A
:100AA000CF900895DF92EF92FF920F931F93CF9311
:100AB000DF93D82E8A017B01E40EF51EEB01CE15E3
:100AC000DF0571F0D7FE03C0FE01849101C088816B
:100AD0000E945B0321968111F2CF8FEF9FEF01C03F
:100AE000C801DF91CF911F910F91FF90EF90DF90A0
:100AF00008950F931F93CF93DF931F92CDB7DEB767
:100B000082E0898342E450E064E071E080E80E9482
:100B100052050E94C404DC0112960D911C9113979A
:100B20000115110569F0D801ED91FC910280F38166
:100B3000E02DBE016F5F7F4FC801099597FF07C089
:100B400089810F90DF91CF911F910F910895F80146
:100B500000851185E5CF382F2091670290916602BC
:100B6000213208F049C0809143028111FCCF42E05C
:100B700040934302309342023FEF30934102109280
:100B8000400220933F02A6E4B2E04FE152E0FA01B6
:100B90003E2F341B321718F43D913193F9CF109248
:100BA0001E0220911E02990F922B90931E0290918B
:100BB0001D02913061F410921D0290911E029093DB
:100BC000BB009091BC0093FDF8CF95EC01C095EE71
:100BD0009093BC00909143029230E1F390914102D6
:100BE0009F3F79F080914102803241F08091410233
:100BF000803331F084E005C081E003C082E001C0B1
:100C000083E0109245021092670210924402089508
:100C1000CF93DF930E94FD04EC0187E891E00E94EE
:100C2000FD048C0F9D1FDF91CF9108950C94FD045E
:100C30008F929F92AF92BF920F931F93CF93DF93A8
:100C4000CDB7DEB7A1970FB6F894DEBF0FBECDBF0C
:100C500019A2423008F44AE08E010F5D1F4F842E26
:100C6000912CA12CB12CA50194010E942C0DE62FF2
:100C7000B901CA0101501109EA3014F4E05D01C064
:100C8000E95CD801EC93232B242B252B61F7C801B9
:100C90000E94FD04A1960FB6F894DEBF0FBECDBF33
:100CA000DF91CF911F910F91BF90AF909F908F9048
:100CB0000895FC0180911C02811103C08FEF9FEF0A
:100CC00008959FB7F89482E08093E9002091F200A4
:100CD00030E01216130614F421E030E0211531053E
:100CE00059F0289884E680931B028091F10080835C
:100CF0008091F200882319F09FBFC90108958BE607
:100D00008093E800F9CF2FB7F89483E08093E9004F
:100D10009091E800892F807295FF04C09091F200B5
:100D200080E4891B2FBF0895CF92DF92EF92FF924C
:100D30000E94D8046B017C010E94D804DC01CB0125
:100D40008C199D09AE09BF09883E9340A105B105E4
:100D500098F3FF90EF90DF90CF900895362F90E0BA
:100D6000FC01E054FE4F4491FC01EF55FE4F2491ED
:100D7000FC01EE57FE4F8491882309F451C04423AF
:100D8000E1F150E0FA013197EF30F105B0F5ED589F
:100D9000FF4F0C944E0D909180009F7707C090916B
:100DA00080009F7D03C090918000977F909380008A
:100DB00024C094B59F7702C094B59F7D94BD1DC09B
:100DC000909190009F7707C0909190009F7D03C005
:100DD00090919000977F909390000FC09091C000E9
:100DE0009F7703C09091C0009F7D9093C00005C085
:100DF0009091C200977F9093C200E82FF0E0EE0F31
:100E0000FF1FEC58FE4FA591B4918FB7F894EC9169
:100E1000311103C020952E2301C02E2B2C938FBFA0
:100E200008951F920F920FB60F9211242F933F93A4
:100E30008F939F93AF93BF938091C6029091C70207
:100E4000A091C802B091C9023091C50223E0230FDE
:100E50002D3720F40196A11DB11D05C026E8230FF2
:100E60000296A11DB11D2093C5028093C6029093E6
:100E7000C702A093C802B093C9028091CA029091A0
:100E8000CB02A091CC02B091CD020196A11DB11D63
:100E90008093CA029093CB02A093CC02B093CD0270
:100EA000BF91AF919F918F913F912F910F900FBE66
:100EB0000F901F9018951F920F920FB60F9211244A
:100EC0008F939F938091E1009091E100937F9093A5
:100ED000E10083FF0FC01092E90091E09093EB00D6
:100EE0001092EC0092E39093ED0010921C0298E0B7
:100EF0009093F00082FF20C093E09093E9009091DE
:100F0000F200992319F09AE39093E80090911A0265
:100F1000992339F090911A02915090931A029923D3
:100F200089F190911B02992339F090911B02915005
:100F300090931B02992341F184FF10C08091E2003D
:100F40008E7E81608093E2008091E1008F7E8093AD
:100F5000E100809119028E7E806111C080FF16C071
:100F60008091E2008E7E80618093E2008091E100BA
:100F70008E7E8093E100809119028E7E8160809345
:100F8000190204C05D9ACDCF289AD6CF9F918F9138
:100F90000F900FBE0F901F9018951F920F920FB6D3
:100FA0000F921124CF92DF92EF92FF920F931F9333
:100FB0002F933F934F935F936F937F938F939F9361
:100FC000AF93BF93EF93FF93CF93DF93CDB7DEB78C
:100FD0006C97DEBFCDBF1092E9008091E80083FFDF
:100FE000FAC168E0CE0145960E94890382EF8093A2
:100FF000E8008D8987FF05C09091E80090FFFCCF45
:1010000003C09EEF9093E800982F907609F0C6C039
:101010009E892F89188D91110CC0803829F48091F8
:1010200018028093F10002C01092F1001092F100BA
:1010300049C1422F50E0512B913051F4811142C1EE
:101040004130510509F03EC1809118028D7F0BC0DF
:10105000933061F4811136C14130510509F032C13C
:10106000809118028260809318022CC1953041F45F
:101070008091E80080FFFCCF20682093E30022C12C
:10108000963009F05FC0EB8CFC8C1092E900109256
:10109000170210921602123091F51092150210925A
:1010A00014020E94790599E0BE016F5F7F4FDB015A
:1010B000E92F1D92EA95E9F799831A8391E09E83BF
:1010C00090EA98879AEF998720911602309117023B
:1010D000275F3F4F3C832B838D831092E900109252
:1010E000170210921602F0921502E092140249E0E3
:1010F00050E080E00E9452050E947905E3C0F09222
:101100001502E09214020E94C404DC011296ED90D4
:10111000FC901397E114F10409F4C1C0D701ED91DB
:10112000FC910480F581E02DBE016B5E7F4FC7010D
:101130000995009719F00CF0C5C0C8C0F701E0840C
:10114000F184E8CF973009F4C1C0983021F481E0F0
:101150008093F100B7C0993009F0B4C0837009F0F2
:10116000B5C0EFE0F1E081E021E036E39081992322
:1011700061F08093E9002093EB0091919093EC0053
:101180003093ED008F5F873089F78EE78093EA0018
:101190001092EA008F8980931C0294C08B8D9C8DE5
:1011A0001092E90010921702109216029093150205
:1011B00080931402898D811159C08E899D89913A3D
:1011C00059F4813209F082C047E050E066E071E0F6
:1011D00080E00E94520576C0913209F077C08332D8
:1011E00089F4888D90E0982F88272F89822BA0E0A2
:1011F000B0E08093020190930301A0930401B093A7
:10120000050160C0803269F48091E80082FFFCCF64
:1012100067E086E091E00E9489038BEF8093E8000D
:1012200051C0823209F04EC08F8980930D01EEEFDC
:10123000FFE7859194918B3F9C4D19F4EEEFFAE016
:1012400002C0E0E0F8E08091060190910701A091D2
:101250000801B0910901803B9440A105B10509F056
:1012600079C080910D0180FF95C074C00E94C404B4
:10127000FC01028113810115110541F1D801ED91A5
:10128000FC910190F081E02DBE016B5E7F4FC801A3
:101290000995811117C0F80100851185ECCF113037
:1012A00009F44EC0133091F48F89882309F445C0A6
:1012B000823081F440E86BE088E691E00E941505F9
:1012C000882321F08EEF8093E80085C081E280932F
:1012D000EB0081C0813029F440E86BE08CE591E0BF
:1012E000EDCF833099F70E94C404DC011296ED9093
:1012F000FC9013978E010F5F1F4F6801E114F104FA
:1013000079F0D701ED91FC910680F781E02DB801CD
:10131000C7010995080F111DF701E084F184EECF94
:10132000D8011C92F60101900020E9F73197BF0126
:101330006C197D0940E0C601C1CF66E471E002C0CE
:101340006AE471E06115710509F2FB01449150E016
:1013500080E83FCF808191818737974709F0B2CFEE
:10136000A895809160008861809360008091C4029C
:1013700080936000EE3FBAE0FB0739F08091FE0AEF
:101380009091FF0A918380839DCF1092FF0A109263
:10139000FE0A98CFEE3F8AE0F80751F080819181F4
:1013A0008737A7E79A0721F09093FF0A8093FE0AF8
:1013B00087E797E791838083809160008093C402E0
:1013C0009BE088E10FB6F894A895809360000FBE6B
:1013D0009093600077CF6C960FB6F894DEBF0FBE87
:1013E000CDBFDF91CF91FF91EF91BF91AF919F91D1
:1013F0008F917F916F915F914F913F912F911F91AD
:101400000F91FF90EF90DF90CF900F900FBE0F9055
:101410001F901895CF93DF9300D01F92CDB7DEB702
:10142000789484B5826084BD84B5816084BD85B5BF
:10143000826085BD85B5816085BD80916E008160CB
:1014400080936E0010928100809181008260809371
:101450008100809181008160809381008091800073
:1014600081608093800080919100826080939100E0
:1014700080919100816080939100809190008160C3
:10148000809390008091C10084608093C10080911E
:10149000C10082608093C1008091C100816080930F
:1014A000C1008091C30081608093C3008091C0001F
:1014B00082608093C0008091C20081608093C200EE
:1014C00080917A00846080937A0080917A008260B3
:1014D00080937A0080917A00816080937A00809175
:1014E0007A00806880937A0010921C021092180291
:1014F000109219028091D70081608093D70080EA12
:101500008093D80089B5806189BD89B5826089BD25
:1015100009B400FEFDCF0E9494068091D8008F7C14
:1015200080618093D8008091E000807F8093E0000C
:101530008091E1008E7E8093E1008DE08093E20057
:10154000559A209A8FEF9FEF9093750280937402C3
:101550001092D6011092D5011092450210926702A6
:101560001092430281E08093420210921D0261E0DA
:1015700082E00E94AE0661E083E00E94AE068091A8
:10158000B9008E7F8093B9008091B9008D7F8093E0
:10159000B90088E48093B80085E48093BC0086E4B9
:1015A00091E09093D4018093D30182E591E09093F0
:1015B000D2018093D10163E070E082E00E94720268
:1015C00027EDA22E21E0B22E30E0832E30E0932EC4
:1015D000CC24C394D12C5524539485EE382E95EC0D
:1015E000292E88E692E00E949701892B09F4DAC13E
:1015F00088E692E00E943B032091000130910101B6
:10160000F901E050FE4F2531310574F48A3061F064
:101610008D3051F08C3241F080832F5F3F4F3093FB
:10162000010120930001BEC11082E09101028E2FC2
:10163000EE0F990BAA0BBB0BFC01E254F109E6314A
:10164000F10508F0ABC1EA5AFF4F0C944E0D62E071
:1016500072E0CE0101960E94590DCE0101960E94C2
:10166000FA0C8093FF0160E070E06FC062E072E00E
:10167000CE0101960E94590DCE0101960E94FA0CEE
:101680008093FE0161E070E060C062E072E0CE0134
:1016900001960E94590DCE0101960E94FA0C80938A
:1016A000FD0162E070E051C062E072E0CE0101969F
:1016B0000E94590DCE0101960E94FA0C8093FC0104
:1016C00064E070E042C062E072E0CE0101960E94E8
:1016D000590DCE0101960E94FA0C8093FB0165E042
:1016E00070E033C064E072E0CE0101960E94590DB3
:1016F000CE0101960E94FA0C8093FA0166E070E038
:101700000E9472028091F7019091F801892B29F4CF
:10171000D092F801C092F70104C01092F801109223
:10172000F7016091F7018DE00E94AE0637C162E0DB
:1017300072E0CE0101960E94590DCE0101960E94E1
:10174000FA0C8093F90163E070E00E94720226C1F6
:101750005092440228E620936602109245021092AD
:10176000670260E088EB92E00E943F0281E00E9405
:10177000AB05809143028111FCCF509243025092FD
:1017800042028FEF809341021092400226E02093A4
:101790003F0250921E0280911E02806D80931E02B5
:1017A00080911D02813069F410921D0280911E0209
:1017B0008093BB008091BC0083FDF8CF2092BC00D9
:1017C00002C03092BC00809143028130E1F38091ED
:1017D0004002873018F48091400201C087E0AFE1F9
:1017E000B2E0E7EDF1E09E2F9A19981718F49D9159
:1017F0009193F9CF1092D6018093D50188EB92E0B6
:101800000E94F301082F0695069506950E70602F2D
:10181000660F660F060F8F70080F88EB92E00E942C
:10182000F301982F92959F708F70F82E2AE0929F67
:10183000F00C112488EB92E00E94F301282F2695EA
:10184000269526952670622F660F660F260F8F70DD
:10185000422E480E88EB92E00E94F301982F929559
:101860009F708F70182F2AE0929F100D112488EB23
:1018700092E00E94F301982F92959F708F70682ECE
:101880002AE0929F600C112488EB92E00E94F30101
:10189000982F92959F708F70782E2AE0929F700CEF
:1018A000112488EB92E00E94F301982F92959F708B
:1018B0008F70E82E2AE0929FE00C1124642D70E0D6
:1018C00080E090E04AE00E94180689E391E00E94DF
:1018D000160689E08F1520F08BE391E00E94160632
:1018E0006F2D70E080E090E04AE00E94180689E3E6
:1018F00091E00E9416060A3020F48BE391E00E94EA
:101900001606602F70E080E090E04AE00E94180622
:101910008CE491E00E941606662D70E080E090E075
:101920004AE00E9418068DE391E00E941606672D9A
:1019300070E080E090E04AE00E9418068DE391E0BC
:101940000E9416066E2D70E080E090E04AE00E9452
:1019500018068FE391E00E941606812F90E0FC01AB
:101960003197E730F105D0F4E459FF4F0C944E0D58
:101970008EE491E011C085E591E00EC08CE591E028
:101980000BC084E691E008C08EE691E005C087E7D1
:1019900091E002C08EE791E00E940806D09201011A
:1019A000C09200018114910409F41BCE0E94000032
:1019B00014CEE8E6F2E01382128288EE93E0A0E013
:1019C000B0E084839583A683B78329E131E0318336
:1019D00020832FEF3FEF35872487E8EBF2E0138277
:1019E000128284839583A683B7838BE291E09183EF
:1019F00080830895FC0188279927E894219120325B
:101A0000E9F3293010F02E30C8F32B3241F02D329B
:101A100039F4689404C00E94180D820F911D219121
:101A200020532A30C0F31EF4909581959F4F08955E
:101A30007AE0979F902D879F802D910D1124089516
:101A4000991B79E004C0991F961708F0961B881F10
:101A50007A95C9F780950895A1E21A2EAA1BBB1B9F
:101A6000FD010DC0AA1FBB1FEE1FFF1FA217B3076A
:101A7000E407F50720F0A21BB30BE40BF50B661F80
:101A8000771F881F991F1A9469F760957095809544
:101A900090959B01AC01BD01CF010895EE0FFF1F92
:101AA0000590F491E02D099481E090E0F8940C9475
:101AB000600DFB01DC0101900D920020E1F708951B
:041AC000F894FFCFC8
:101AC4000100FFFFFFFF00E100000000000000C173
:101AD4008081000000000000007601930213038C53
:101AE4000197013B031703000000003F020F026F40
:101AF40002E3010702F301E4013A0030002F002061
:101B0400446179206F66207765656B3A20005375D0
:101B14006E646179004D6F6E64617900547565730C
:101B2400646179005765646E657364617900546813
:101B340075727364617900467269646179005361F6
:0A1B4400747572646179000D0A00E7
:00000001FF
