:100000000C94A2000C94CA000C94CA000C94CA0070
:100010000C94CA000C94CA000C94CA000C94CA0038
:100020000C94CA000C94CA000C94CA000C94CA0028
:100030000C94CA000C94CA000C94CA000C94CA0018
:100040000C948D050C94CA000C94FD050C94D705F6
:100050000C94CA000C94CA000C94CA000C94CA00F8
:100060000C946B030C94CA000000000024002700CD
:100070002A0000000000250028002B0000000000DE
:1000800023002600290004040404040404040202DA
:100090000202020203030303030301020408102007
:1000A0004080010204081020010204081020000012
:1000B0000008000201000003040700000000000027
:1000C00000007E306D79335B5F707F7B771F0D3D65
:1000D0004F4700000000000000000000000000008A
:1000E000000000000000000000000000000080018F
:1000F00080007E306D79335B5F707F7B0000000095
:10010000000000771F0D3D4F4700370000000E0034
:100110000000670000000000000000000000000078
:10012000000800771F0D3D4F4700370000000E000C
:10013000151D670000000000000000000000000026
:100140000000981211241FBECFEFD8E0DEBFCDBF54
:1001500023E0A6EAB1E001C01D92AA3CB207E1F794
:1001600011E0A0E0B1E0E6E6F2E302C005900D92F6
:10017000A63AB107D9F710E0C2EAD0E004C021974F
:10018000FE010E94F917C13AD107C9F70E94F80D84
:100190000C9431190C94000085ED8093BC00809183
:1001A000BC0084FDFCCF1092450208954091D60119
:1001B000262F30E0240F311D21323105DCF420914F
:1001C00045022430C9F4FC0180E090E0861758F421
:1001D0003091D6012191DC01AC54BE4FA30FB11D6B
:1001E0002C930196F3CF8091D601680F6093D601CE
:1001F00080E0089581E0089582E00895E091B201E1
:10020000F091B301309729F01092FC0110921E0278
:1002100009940895AC01E091B001F091B1013097DB
:10022000E1F090914702809146029817B0F090E07B
:10023000292F30E02617370754F4DA01A20FB31F35
:100240008C91D901A85BBD4F8C939F5FF1CF109229
:10025000470260934602CB01099408950895E09106
:10026000470280914602E81730F4F0E0E85BFD4F6A
:10027000808190E008958FEF9FEF0895909147025D
:1002800080914602981750F4E92FF0E0E85BFD4FAB
:10029000208130E09F5F9093470202C02FEF3FEF35
:1002A000C90108958091460290E020914702821B87
:1002B00091090895CF92DF92EF92FF920F931F93CF
:1002C000CF93DF937C01262F972F8A018091FB012A
:1002D000882391F0C62FD72F6E01C40ED51ECC15E2
:1002E000DD0571F06991D701ED91FC910190F081EC
:1002F000E02DC7010995F3CF642F822F0E94D6000D
:10030000C801DF91CF911F910F91FF90EF90DF9087
:10031000CF900895CF93DF931F92CDB7DEB7698357
:100320002091FB012223D1F020911E02203240F0C7
:1003300021E030E0FC013383228380E090E015C0AF
:100340008091FC01E82FF0E0E350FE4F998190830B
:100350008F5F8093FC0180931E0205C061E0CE0197
:1003600001960E94D60081E090E00F90DF91CF913E
:100370000895833081F028F4813099F08230A1F023
:1003800008958730A9F08830B9F08430D1F4809195
:1003900080008F7D03C0809180008F7780938000E4
:1003A000089584B58F7702C084B58F7D84BD08958C
:1003B0008091B0008F7703C08091B0008F7D8093D3
:1003C000B00008953FB7F8948091AC019091AD01D1
:1003D000A091AE01B091AF0126B5A89B05C02F3FFB
:1003E00019F00196A11DB11D3FBFBA2FA92F982F5B
:1003F0008827820F911DA11DB11DBC01CD0142E0D6
:10040000660F771F881F991F4A95D1F70895CF92DD
:10041000DF92EF92FF920F931F93CF93DF936C01C4
:100420007A018B01C0E0D0E0CE15DF0589F0D8015C
:100430006D918D01D601ED91FC910190F081E02D3F
:10044000C6010995892B11F47E0102C02196ECCFDB
:10045000C701DF91CF911F910F91FF90EF90DF9037
:10046000CF900895089580E090E008958093BB00B8
:1004700084E88093BC0081E69AEE2091BC0027FDC1
:1004800003C00197D1F706C09091B900987F81E031
:10049000983209F080E00895880F860F8093BB00A2
:1004A00084E88093BC0081E69AEE2091BC0027FD91
:1004B00003C00197D1F711C08091B900887F8034C3
:1004C00021F4662311F081E008959091B900987F9E
:1004D000983119F481E08627089580E0089584E931
:1004E0008093BC0081E69AEE2091BC0024FD02C0FE
:1004F0000197D1F78BE490E00197F1F7089584EA32
:100500008093BC0081E69AEE2091BC0027FD03C0D9
:100510000197D1F706C09091B900987F81E098309B
:1005200009F080E00895FF920F931F93CF93DF931C
:10053000EC01F62E042F11E0198B0E947F02882314
:10054000B9F0198B60E08A810E944C02882381F007
:1005500082E0898B8F2D0E943602882349F083E048
:10056000898B802F0E943602882311F084E0898BCA
:100570000E946F0281E09989943009F080E0DF9158
:10058000CF911F910F91FF9008951F93CF93DF9309
:10059000EC01162F81E0898B0E947F02882379F17C
:1005A00060E08A810E944C02882349F1812F0E94D9
:1005B0003602882321F184EA8093BC0081E69AEE1A
:1005C0002091BC0027FD03C00197D1F718C080918E
:1005D000B900887F803199F461E08A810E944C02E1
:1005E000882369F084E88093BC0081E69AEE20912C
:1005F000BC0027FD0BC00197D1F780E0898B0E94DA
:100600006F028989DF91CF911F9108958091B90080
:100610008091B900887F883581F78091BB00EECF4B
:100620000F931F93CF93DF93EC01062F142FE881D4
:10063000F9810280F381E02D0995898BFE01E00F9D
:10064000F11D9285492F40954823142B982B412F5B
:1006500049236381CE01DF91CF911F910F910C94BB
:100660009302CF92DF92EF92FF920F931F93CF935B
:10067000DF93EC01162F0E94E2016B017C010E94C6
:10068000E201AB01BC014C195D096E097F09483ECE
:1006900053406105710598F3CE01810F911D8C01C6
:1006A000FC016381CE010E94C502F8019285892375
:1006B000DF91CF911F910F91FF90EF90DF90CF903E
:1006C000089584E792E00E94160721E0892B09F43F
:1006D00020E0822F08951F920F920FB60F921124DF
:1006E0002F933F934F935F936F937F938F939F933A
:1006F000AF93BF93EF93FF938091B900887F8036CB
:1007000009F49CC068F5883209F45BC090F480312C
:1007100009F454C038F4882309F4F6C0883009F489
:100720004DC0F6C0883109F44CC0803209F45DC078
:10073000EFC0803409F468C048F4803309F455C030
:10074000883309F0E5C080934302D8C0803509F4AE
:100750004FC0883509F45DC0883409F0D9C0D6C0CF
:10076000883909F4C7C0A8F4883709F467C038F499
:10077000883609F463C0803709F460C0C9C088387E
:1007800009F4B8C0803909F45FC0803809F0C0C0EE
:100790005BC0803B09F486C038F4803A09F466C037
:1007A000883A09F47FC0B4C0803C09F4A7C0883CF3
:1007B00009F4A4C0883B09F48AC0AAC08091400211
:1007C00010C09091420280914102981770F5E0911B
:1007D000420281E08E0F80934202F0E0E15EFD4F25
:1007E00080818093BB0085EC86C0809343028EC0DD
:1007F000E091420281E08E0F809342028091BB0023
:10080000F0E0E15EFD4F80839091420280914102D1
:100810006EC0E091420281E08E0F8093420280918F
:10082000BB00F0E0E15EFD4F8083809144028111C6
:100830006DC081E080933F0284EA61C083E08093D1
:1008400045021092FA01CFCF8091FA01803208F070
:1008500051C0E091FA0181E08E0F8093FA018091FE
:10086000BB00F0E0E652FE4F8083BDCF85EC809365
:10087000BC00109245028091FA01803230F4E09180
:10088000FA01F0E0E652FE4F10826091FA0170E04A
:10089000E091D801F091D9018AED91E0099510928B
:1008A000FA0136C084E0809345021092D70110927D
:1008B000D601E091D401F091D50109958091D6013E
:1008C000811105C081E08093D6011092B401E091BE
:1008D000D70181E08E0F8093D701F0E0EC54FE4FFA
:1008E00080818093BB009091D7018091D6019817A9
:1008F00008F479CF85E88093BC000AC085EC80932A
:10090000BC001092450204C0109243020E94CC0029
:10091000FF91EF91BF91AF919F918F917F916F91D7
:100920005F914F913F912F910F900FBE0F901F90AD
:100930001895CF93DF93282F30E0F901E255FF4F50
:100940008491F901E656FF4FD491F901EA57FF4F20
:10095000C491CC2391F081110E94B901EC2FF0E0F9
:10096000EE0FFF1FE458FF4FA591B491EC91ED23DA
:1009700081E090E021F480E002C080E090E0DF912F
:10098000CF9108951F93CF93DF93282F30E0F90183
:10099000E255FF4F8491F901E656FF4FD491F901DA
:1009A000EA57FF4FC491CC23C9F0162F81110E9442
:1009B000B901EC2FF0E0EE0FFF1FEE58FF4FA591AD
:1009C000B4918FB7F894111105C09C91ED2FE0956B
:1009D000E92302C0EC91ED2BEC938FBFDF91CF9117
:1009E0001F910895CF93DF9390E0FC01E656FF4FEF
:1009F0002491FC01EA57FF4F8491882361F190E034
:100A0000880F991FFC01E859FF4FC591D491FC0153
:100A1000EE58FF4FA591B491611109C09FB7F894AA
:100A20008881209582238883EC912E230BC062302D
:100A300061F49FB7F8943881822F8095832388834F
:100A4000EC912E2B2C939FBF06C08FB7F894E881B2
:100A50002E2B28838FBFDF91CF910895CF93DF9303
:100A6000EC0160E082E10E94F20460E083E10E9418
:100A7000F20461E082E10E94C20461E083E10E942D
:100A8000C20488E48093B8008091B8008A3018F4DA
:100A90008AE08093B8008091B9008C7F8093B90080
:100AA00062E0CE010E94C502898B86FF06C0482FF6
:100AB0004F7B62E0CE010E9493026EE0CE010E9465
:100AC000C502898B982F9F7D31F0482F40726EE0D0
:100AD000CE010E9493026FE0CE010E94C502898B75
:100AE000982F937811F483FD09C08477482F4860CC
:100AF0006FE0CE01DF91CF910C949302DF91CF9103
:100B000008952FB7F8946091A8017091A901809180
:100B1000AA019091AB012FBF08951F920F920FB6BB
:100B20000F9211242F933F938F939F93AF93BF9373
:100B30008091A8019091A901A091AA01B091AB0167
:100B40003091A70123E0230F2D3720F40196A11D3A
:100B5000B11D05C026E8230F0296A11DB11D2093EB
:100B6000A7018093A8019093A901A093AA01B09333
:100B7000AB018091AC019091AD01A091AE01B0911B
:100B8000AF010196A11DB11D8093AC019093AD0101
:100B9000A093AE01B093AF01BF91AF919F918F91A0
:100BA0003F912F910F900FBE0F901F9018951F929D
:100BB0000F920FB60F9211242F933F934F935F9391
:100BC0006F937F938F939F93AF93BF93EF93FF9315
:100BD00084E792E00E94690BFF91EF91BF91AF9182
:100BE0009F918F917F916F915F914F913F912F9145
:100BF0000F900FBE0F901F9018951F920F920FB677
:100C00000F9211242F938F939F93EF93FF93E09173
:100C10008402F09185028081E0918A02F0918B023A
:100C200082FD12C0908180918D028F5F8F73209121
:100C30008E02821751F0E0918D02F0E0EC58FD4FEA
:100C4000958F80938D0201C08081FF91EF919F91DC
:100C50008F912F910F900FBE0F901F9018950895B0
:100C60008CBD9DBD08952F923F924F925F926F92DF
:100C70007F928F929F92AF92BF92CF92DF92EF922C
:100C8000FF920F931F93CF93DF9300D0CDB7DEB7C2
:100C90008C0149832A83660F771FF801EA5AFF4FB8
:100CA000E080F180EE0CFF1CF801CF01801B910B5E
:100CB0008E159F0514F41192F8CF8981F801E60F83
:100CC000F71F81838A818083580184E5A80EB11CB7
:100CD00060E0F50180810E94C204E00EF11E48012F
:100CE000F2E58F0E911C380180E5680E711CC7017A
:100CF000801B910B1816190624F5F701C2907F018D
:100D0000F4013080F301208087E0482E512CD12C53
:100D1000B601042C02C0759567950A94E2F76170DC
:100D20007727822D0E94C20461E0832D0E94C204B5
:100D300060E0832D0E94C204F1E04F1A510840F791
:100D4000D6CF61E0F50180810F900F90DF91CF91B8
:100D50001F910F91FF90EF90DF90CF90BF90AF90D9
:100D60009F908F907F906F905F904F903F902F90CB
:100D70000C94C204CF92DF92EF92FF920F931F93D5
:100D8000CF93DF938C017B016B0183E0CC0CDD1CE6
:100D90008A95E1F7C1E0D0E0FE01EC0DFD1DE00F0A
:100DA000F11F178620E04C2FB701C8010E943306BF
:100DB0002196C930D10581F7DF91CF911F910F9115
:100DC000FF90EF90DF90CF900895FC01538D448DFC
:100DD000252F30E0842F90E0821B930B541710F0E6
:100DE000CF96089501970895FC01918D828D9817F3
:100DF00061F0828DDF01A80FB11D5D968C91928DFF
:100E00009F5F9F73928F90E008958FEF9FEF0895FB
:100E1000FC01918D828D981731F0828DE80FF11DC4
:100E2000858D90E008958FEF9FEF0895FC01918DDF
:100E3000228D892F90E0805C9F4F821B91098F73D8
:100E40009927089580E090E0892B29F00E946103A2
:100E500081110C9400000895CF93DF93CDEBD3E084
:100E600060E08D810E94C20460E08E810E94C20415
:100E700061E08D810E94C20461E08E81DF91CF919B
:100E80000C94C204CF93DF93CDEBD3E061E08E816D
:100E90000E94C20460E08E810E94C20460E08D81E5
:100EA000DF91CF910C94C204EF92FF921F93CF93E6
:100EB000DF93182FD8E087E0E82EF12C60E08091D6
:100EC000C2030E94C20410FF02C061E001C060E0E2
:100ED0008091C3030E94C204C7010197F1F71595E1
:100EE00061E08091C2030E94C204C7010197F1F73B
:100EF000D15021F760E08091C2030E94C20461E0FA
:100F00008091C3030E94C20461E08091C2030E94E9
:100F1000C20460E08091C3030E94F2048091C30385
:100F20000E949904892B79F0CF5FC83C91F761E06A
:100F30008091C3030E94F20460E08091C3030E9489
:100F4000C204C0E0E6CF61E08091C303DF91CF919E
:100F50001F91FF90EF900C94F2040E942C198F9235
:100F60009F92AF92BF92CF92DF92EF92FF921F9328
:100F7000CF93DF93C090B903D090BA03E090BB0346
:100F8000F090BC030E9481056C157D058E059F05C0
:100F900040F41092B9031092BA031092BB0310925E
:100FA000BC032091B7033091B8032115310519F422
:100FB0000E94490DAFC08091B9039091BA03A091EE
:100FC000BB03B091BC030097A105B10589F36C0187
:100FD0007D01C20ED31EE11CF11C0E9481056C151F
:100FE0007D058E059F0520F70E948105C090B903FD
:100FF000D090BA03E090BB03F090BC036C197D095C
:101000008E099F0928EE33E040E050E00E946D1603
:10101000D091AE031091AF03D23009F0ADC0812F53
:1010200090E083709927892B09F4A1C0CCE18091CD
:10103000AA0349015A01880E911CA11CB11CC501CB
:10104000B4012CE3C22ED12CE12CF12CA701960186
:101050000E946D16609397038091AB0349015A017A
:10106000880E911CA11CB11CC501B401A7019601F9
:101070000E946D16609398038091AC0359016A0138
:10108000A80EB11CC11CD11CC601B50128E130E07D
:1010900040E050E00E946D1660939A038091B00387
:1010A000820F873008F065C080939D038091AD0367
:1010B00069017A01C80ED11CE11CF11CC701B601FF
:1010C0002C2F30E02F5F3F4F032E000C440B550BAD
:1010D0000E946D16620F60939C03CA01B9016D0FE7
:1010E000711D811D911D2DE030E040E050E00E9417
:1010F0006D16620F60939E03CA01B901610F711DE5
:10110000811D911D24E630E040E050E00E946D1604
:1011100060939F0320919A03822F6CE00E944D16EA
:10112000911101C09CE09093990391E02C3008F458
:1011300090E090939B038091A2039091A3030E945F
:10114000941881E090E00E94FF179093A30380938E
:10115000A203FC011082DF91CF911F91FF90EF90CD
:10116000DF90CF90BF90AF909F908F900895CDE18A
:101170005ECF10929D039ACF6D2F70E081E090E0DA
:10118000D83010F480E090E0860F971F8170992787
:10119000CEE1C80F4CCFEF92FF920F931F93CF93E6
:1011A000DF93909175039F3F39F48EBD00000DB41D
:1011B00007FEFDCF8EB528C0D82F07E010E0C0E0B5
:1011C000EE24E394F12CCC0F60E0809175030E9433
:1011D000C204B701002E01C0660F0A94EAF76D231E
:1011E000809173030E94C20461E0809175030E94A4
:1011F000C204809174030E949904892B09F0C16094
:101200000150110900F78C2FDF91CF911F910F91A1
:10121000FF90EF900895909145029111FCCF6132BB
:1012200008F060E291E090934502909344022FEF22
:101230002093430210924202260F20934102909382
:10124000400290914002880F892B80934002809148
:101250003F02813061F410923F02809140028093FE
:10126000BB008091BC0083FDF8CF85EC01C085EE0A
:101270008093BC00809145028130E1F3809142026D
:10128000861710F460914202AFE1B2E028E432E048
:10129000F9018E2F821B861718F48D918193F9CF57
:1012A0001092470260934602862F089520911E02F5
:1012B00090911D02213208F04AC0809145028111AF
:1012C000FCCF32E03093450231E0309344023FEFEF
:1012D000309343021092420220934102ADEFB1E0FD
:1012E0004FE152E0FA013E2F341B321718F43D91C2
:1012F0003193F9CF1092400220914002990F922B26
:101300009093400290913F02913061F410923F021D
:10131000909140029093BB009091BC0093FDF8CF58
:1013200095EC01C095EE9093BC00909145029230EF
:10133000E1F3909143029F3F79F080914302803224
:1013400041F080914302803331F084E005C081E0B8
:1013500003C082E001C083E01092FC0110921E02E3
:101360001092FB010895CF93DF93C82F80917203F1
:101370008F3F39F58091690391E09093FB01809351
:101380001D021092FC0110921E026C2F88E692E062
:101390000E948A010E94560962E0809169030E94BE
:1013A0000B0988E692E00E943E01C82F88E692E091
:1013B0000E943E0120E030E03C2FE901C82BD92BF0
:1013C00029C0809175038F3F21F482E591E00E944E
:1013D000300660E0809172030E94C2048C2F806806
:1013E0000E94CB0880E00E94CB08C82F80E00E94BA
:1013F000CB082C2F30E0322F2227E901C82B61E0E7
:10140000809172030E94C204809175038F3F11F492
:101410000E942F069C2F8D2FDF91CF910895CF939F
:10142000DF93D82F8091C003811102C0C0E001C0BA
:10143000C0E86F3739F0E62F660FFF0BEA5FFE4F0B
:101440009081C90F0E94420784E40E9454070E94C1
:101450002C070E9442078D2F806C0E9454078C2F0E
:101460000E9454070E942C070E9442078091BF03EC
:101470000E945407DF91CF910C942C0720916703B1
:101480003091680312161306B4F48830910598F46D
:10149000603188F4E62FF0E0EE53FF4F2491FC0119
:1014A000EF5EFC4F208B41E0480F60E070E081E18F
:1014B00093E00C9433060895CF92DF92EF92FF925F
:1014C000CF93C82F809172038F3F09F040C0809165
:1014D000690391E09093FB0180931D021092FC013F
:1014E00010921E026C2F88E692E00E948A010E94F0
:1014F000560963E0809169030E940B0988E692E037
:101500000E943E016C01990FEE08FF08FE2CED2CA5
:10151000DC2CCC2488E692E00E943E01AC01990FBD
:10152000660B770BC42AD52AE62AF72AFE2CED2C67
:10153000DC2CCC2488E692E00E943E01AC01990F9D
:10154000660B770BC42AD52AE62AF72A33C0809186
:1015500075038F3F21F482E591E00E94300660E040
:10156000809172030E94C2048C2F80680E94CB0875
:1015700080E00E94CB08C82ED12CE12CF12CFE2C4F
:10158000ED2CDC2CCC2480E00E94CB08C82AFE2C59
:10159000ED2CDC2CCC2480E00E94CB08C82A61E032
:1015A000809172030E94C204809175038F3F11F4F1
:1015B0000E942F06C701B601CF91FF90EF90DF90F8
:1015C000CF9008958F929F92AF92BF92CF92DF9269
:1015D000EF92FF928AEF0E945C0AE9E6F3E045850C
:1015E00056854A01A12CB12CC72ED82EE92EFF24F6
:1015F000E7FCFA94C818D908EA08FB08DC01CB011B
:1016000037E0B595A795979587953A95D1F7B501A8
:10161000A401440F551F661F771F4C015D01841AFA
:10162000950AA60AB70AA5019401A785B0890E9468
:101630008F164B015C013BE0B594A7949794879477
:101640003A95D1F7A7019601C701B6010E943D1650
:101650009B01AC016CE055954795379527956A95A8
:10166000D1F7A189B2890E948F16DC01CB017EE0FF
:10167000B595A795979587957A95D1F7A50194018A
:10168000280F391F4A1F5B1F2583368347835087E6
:10169000A5E0B0E00E94F014DC01CB0180589F4F20
:1016A000AF4FBF4F692F7A2F8B2F992787FD9A95C0
:1016B0000E94F71320E030E048EC52E40E9441150C
:1016C000FF90EF90DF90CF90BF90AF909F908F9062
:1016D0000895FC01848DDF01A80FB11DA35ABF4FEF
:1016E0002C91848D90E001968F739927848FA68921
:1016F000B7892C93A089B1898C91837080648C9375
:10170000938D848D981306C00288F389E02D808123
:101710008F7D80830895EF92FF920F931F93CF9355
:10172000DF93EC0181E0888F9B8D8C8D981305C031
:10173000E889F989808185FD26C0F62E0B8D10E0A1
:101740000F5F1F4F0F731127E02E8C8DE8120CC016
:101750000FB607FCFACFE889F989808185FFF5CFBC
:10176000CE010E94690BF1CF8B8DFE01E80FF11DB8
:10177000E35AFF4FF0829FB7F8940B8FEA89FB89F9
:10178000808180620AC09FB7F894EE89FF896083E8
:10179000E889F98980818370806480839FBF81E0BC
:1017A00090E0DF91CF911F910F91FF90EF900895FE
:1017B000CF93DF93EC01888D8823C9F0EA89FB89F8
:1017C000808185FD05C0A889B9898C9186FD0FC0EF
:1017D0000FB607FCF5CF808185FFF2CFA889B989C4
:1017E0008C9185FFEDCFCE010E94690BE7CFDF9191
:1017F000CF910895CF92DF92EF92FF920F931F93B4
:10180000CF93DF93C82FD62F042F11E08091B1031F
:10181000821310E00E948105C090B203D090B30300
:10182000E090B403F090B503A70196010E946D16F5
:10183000F694E794D794C7946C157D058E059F05A3
:1018400008F442C0D23009F442C028F4DD2351F03C
:10185000D13011F115C1D33009F467C0D43009F487
:10186000B1C00EC1E091A203F091A303E00FF11DFE
:10187000111105C0C73008F0C6E0C05D01C0C0E26C
:10188000C083FEC0D33008F04CC0DD2309F4EEC0A5
:10189000D13009F0F5C010E0C43608F0C3E6202FBF
:1018A00030E0E091A203F091A303E20FF31F1111C6
:1018B00006C08C2F6AE00E944D16805D01C080E258
:1018C00080832F5F3F4FC1C0D230E1F610E0C730B8
:1018D00008F0C6E0202F30E0E091A203F091A303CE
:1018E000E20FF31F111108C0A091A603B091A70346
:1018F000AC0FB11D8C9101C080E280832F5F3F4F00
:10190000E091A203F091A303E20FF31F111153C062
:10191000A091A603B091A703AC0FB11D11968C91B5
:101920004BC0D33009F04AC010E0C73308F0C6E31B
:10193000E02FF0E0A091A203B091A3039D012E0F30
:101940003F1F111109C08091A8039091A9038C0F2A
:10195000911DDC018C9101C080E2D9018C93A09192
:10196000A203B091A303CF0101969D01280F391F57
:1019700011110AC08091A8039091A9038C0F911DA9
:10198000DC0111968C9101C080E2D9018C939F01FA
:101990002E5F3F4FE091A203F091A303E20FF31FEC
:1019A000111109C0A091A803B091A903AC0FB11DFA
:1019B00012968C9101C080E2808362C0D43009F01D
:1019C0005FC010E0C43608F0C3E6202F30E0E0919D
:1019D000A203F091A303E20FF31F11110AC080913B
:1019E000B60390E001976AE070E00E945916605DCE
:1019F00001C060E26083E091A203F091A303C901FA
:101A00000196E80FF91F11110AC08091B60390E00A
:101A100001976AE070E00E945916805D01C080E283
:101A20008083E091A203F091A303C9010296E80F1D
:101A3000F91F111106C08C2F6AE00E944D16805DBF
:101A400001C080E280832D5F3F4FE091A203F091BF
:101A5000A303E20FF31F111106C08C2F6AE00E944E
:101A60004D16905D01C090E290830AC0C73008F027
:101A7000C6E0E091A203F091A303E00FF11DFDCEBB
:101A8000DF91CF911F910F91FF90EF90DF90CF905A
:101A90000895CF93DF93C7E9D3E089859A85DC0168
:101AA000ED91FC910280F381E02D60E00995982F83
:101AB0009695969596959E71292F220F220F920F3B
:101AC0008F70890F8B8B888389859A85DC01ED91D6
:101AD000FC910280F381E02D61E00995982F9695A5
:101AE000969596959E71292F220F220F920F8F7037
:101AF000890F8C8B898389859A85DC01ED91FC9116
:101B00000280F381E02D62E00995982F96959695D5
:101B100096959E71292F220F220F920F8F70890F99
:101B20008D8B8B8389859A85DC01ED91FC910280F8
:101B3000F381E02D63E00995982F969596959695FB
:101B40009E71292F220F220F920F8F70890F8E8B7B
:101B50008D8389859A85DC01ED91FC910280F3816A
:101B6000E02D64E00995982F9695969596959E712F
:101B7000292F220F220F920F8F70890F8F8B8F8347
:101B800089859A85DC01ED91FC910280F381E02D3D
:101B900065E00995982F9695969596959E71292FB3
:101BA000220F220F920F8F70890F888F8887898567
:101BB0009A85DC01ED91FC910280F381E02D66E0D5
:101BC0000995282F2F7021508695869586958E71C0
:101BD000982F990F990F890F820F898F8E830E94FA
:101BE00081056AA37BA38CA39DA3DF91CF91089568
:101BF000CF93DF93CDB7DEB7A5970FB6F894DEBFCE
:101C00000FBECDBF789484B5826084BD84B58160F9
:101C100084BD85B5826085BD85B5816085BD8091B7
:101C20006E00816080936E0010928100809181002F
:101C30008260809381008091810081608093810027
:101C4000809180008160809380008091B1008460E9
:101C50008093B1008091B00081608093B00080914A
:101C60007A00846080937A0080917A008260809309
:101C70007A0080917A00816080937A0080917A0066
:101C8000806880937A001092C1001092C10311E025
:101C90001093C50383E08093C4036FE780E00E9444
:101CA0000F0A6FE781E00E940F0A6FE782E00E944F
:101CB0000F0A6FE783E00E940F0A80E48093BD0360
:101CC00080EC8093BE038FE88093BF038091A003D4
:101CD0009091A103DC01ED91FC910190F081E02D48
:101CE00009950E94AF0762E084E00E94F20486E753
:101CF00080936903809172038F3F99F51092470298
:101D0000109246021092FC0110921E02109245029F
:101D10001093440210923F0261E082E10E94C204EB
:101D200061E083E10E94C2048091B9008E7F8093BC
:101D3000B9008091B9008D7F8093B90088E48093C9
:101D4000B80085E48093BC008EEF90E09093D501BD
:101D50008093D4018AE091E09093D9018093D801D7
:101D60004EC061E00E94C20461E0809172030E9453
:101D7000F204809175038F3F09F034C01FB7F894C7
:101D80008091A601811127C0E0E9F0E08491E4EAA6
:101D9000F0E09491E82FF0E0EE0FFF1FE859FF4FBD
:101DA000A591B491EC91E92321F461E08AE00E94CD
:101DB000C20461E08AE00E94F2048CB580618CBDAF
:101DC0008CB580648CBD61E08DE00E94F20461E01E
:101DD0008BE00E94F2048091A6018F5F8093A601A0
:101DE0001FBF0DC061E00E94F20461E080917303A7
:101DF0000E94F20460E0809174030E94F2048091DA
:101E000072038F3FE9F48091690391E09093FB01A5
:101E100080931D021092FC0110921E0260ED88E674
:101E200092E00E948A010E94560961E08091690354
:101E30000E940B0988E692E00E943E01182F19C00B
:101E4000809175038F3F21F482E591E00E94300676
:101E500060E0809172030E94C20480ED0E94CB0872
:101E600080E00E94CB08182F61E0809172030E94ED
:101E7000C204183509F088C088E80E94B30990931D
:101E80007703809376038AE80E94B30990937903DD
:101E9000809378038CE80E94B30990937B0380932E
:101EA0007A038EE80E94B30990937D0380937C03AC
:101EB00080E90E94B30990937F0380937E0382E9B7
:101EC0000E94B309909381038093800384E90E9468
:101ED000B309909383038093820386E90E94B30938
:101EE000909385038093840388E90E94B3099093BB
:101EF0008703809386038AE90E94B309909389033C
:101F0000809388038CE90E94B30990938B0380939C
:101F10008A038EE90E94B30990938D0380938C030A
:101F2000809172038F3FC1F48091690391E0909397
:101F3000FB0180931D021092FC0110921E0264EFBF
:101F400088E692E00E948A016FE388E692E00E94B0
:101F50008A010E94560918C0809175038F3F21F4B1
:101F600082E591E00E94300660E0809172030E9459
:101F7000C20484E70E94CB088FE30E94CB0861E093
:101F8000809172030E94C20480916703909168035C
:101F90001816190644F421E04CE060E070E081E19D
:101FA00093E00E94330680916703909168031816AE
:101FB000190644F421E04AE060E070E081E193E03A
:101FC0000E943306809167039091680318161906E2
:101FD00034F460E070E081E193E00E94BA060E9470
:101FE000E20A0E94B3157F8F6E8F0E94E20A87EF8C
:101FF0000E945C0A6A8F7B8F8C8F9D8F80916E030D
:1020000090916F03A0917003B09171036C017D01F9
:10201000FF0CCC08DC2C76019C01AD016C2D7C2DD5
:102020008C2D9C2D345F4140510961097109810952
:1020300091092CA33DA349835A836B837C838D83B1
:102040009E8359016A017B018C010E9497162A8B9D
:102050003B8B4C8B5D8B6E8B7F8B888F998FB09178
:102060008603B8A3209187032F833091840339A37B
:10207000409185034887509182035AA3809183033E
:102080008987B0907F03A0907E031B2D110F110B49
:10209000C12ED12EE12EF12E012F2CA13DA149817F
:1020A0005A816B817C818D819E810E9497160CE004
:1020B0000E94901719012A013B014C01B090810345
:1020C000A09080031B2D110F110BC12ED12EE12EDC
:1020D000F12E012F2A893B894C895D896E897F8980
:1020E000888D998D0E94971608E00E94A9175101CA
:1020F0006201730184010E94C71770588F4F9F4F70
:1021000020907C0330907D035101C12CD12CE12C17
:10211000F12C00E010E00E94971601E20E94A9173E
:102120002A873B874C875D876E877F87888B998B53
:10213000A0E00E94D91709F468C1A8A01F81110F5F
:10214000110BBF80C12ED12EE12EF12E012F2A8935
:102150003B894C895D896E897F89888D998D0E9424
:10216000971619012A013B014C01A9A01885110FEE
:10217000110BB884C12ED12EE12EF12E012F2CA1EE
:102180003DA149815A816B817C818D819E810E9414
:10219000971601E10E94901759016A017B018C0199
:1021A0009101A201B301C4010E94C71719012A01BC
:1021B0003B014C018A8D9B8DAC8DBD8D24E0B59586
:1021C000A795979587952A95D1F720E030E040E1D3
:1021D00050E0281B390B4A0B5B0BDA01C90169017E
:1021E0007A01FF0CCC08DC2C76019C01AD016C2D32
:1021F0007C2D8C2D9C2D0FE10E9490172B833C830E
:10220000B42FA52FF62FE72F89839A832AA19985CA
:10221000990F990B3985492F592F692F792F892FBC
:1022200003E20E94901759016A017B018C01910120
:10223000A201B301C4010E94C71759016A017B01C1
:102240008C012B813C814B2F5A2F6F2F7E2F898140
:102250009A810E94D0174901642E552EB62FA72FC0
:10226000F82FE92F03E00E9490175401C62CD52CBB
:10227000EB2EFA2E0F2F1E2F0E94D01759016A0144
:102280007B01782E192F03E00E949017072D0E94E2
:10229000D01703E00E9490175401C62CD52CEB2ECA
:1022A000FA2E0F2F1E2F0E94D01702E00E949017C7
:1022B0000F2F0E94D01701E00E9490170F2F0E944D
:1022C000D017AA84BB84CC84DD84EE84FF84088983
:1022D00019890E94F2162887232E49835A836B831B
:1022E0007C838D839E830DE00E94A917322E432E9E
:1022F000542E652E762E872E982E9F8330918D0337
:1023000020918C03932F990F990BA32CB42CC52CDF
:10231000D62CE72CF82C092D1F81492F592F692F16
:10232000792F892F0E9497160E94971609E10E9423
:10233000A91759016A017B018C012885322D498139
:102340005A816B817C818D819E810E94C717322EBC
:10235000432E542E652E762E872E982E9F833091F5
:102360008B0320918A03932F990F990BA884B22C89
:10237000C980DA80EB80FC800D811E81492F592FA6
:10238000692F792F892F0E94971603E10E94A917C0
:1023900059016A017B018C01232D342D452D562DC9
:1023A000672D782D892D9F810E94C71708E00E9414
:1023B000A9174901742E652EB62FA72FF82FE92FE4
:1023C0003091890320918803932F990F990B492FFE
:1023D000592F692F792F892F04E00E9490175901F6
:1023E0006A017B018C019401472D562D6B2F7A2FAA
:1023F0008F2F9E2F0E94C7170E94E91520E030E022
:1024000040E85BE30E94321403C060E070E0CB015F
:102410002FE832EC45EF5BE30E9432140E94B315C3
:102420007B018E8D9F8D6AE070E00E945916182FF7
:1024300087E090E00E943E0A612F86E090E00E94D3
:102440003E0A8091670390916803181619065CF4A0
:1024500033E63093260323E646E060E070E081E156
:1024600093E00E94330680916703909168031816E9
:1024700019065CF44EE4409325032EE445E060E049
:1024800070E081E193E00E943306C70164E670E0EA
:102490000E94591682E090E00E943E0AC7016AE05D
:1024A00070E00E945916182FCB016AE070E00E947C
:1024B0005916682F81E090E00E943E0A612F80E06B
:1024C00090E00E943E0A0E94AF0780919A0310910B
:1024D00098036AE00E944D16682F80E09BA30E943B
:1024E0000F0A9BA1692F81E00E940F0A812F6AE0E9
:1024F0000E944D16682F82E09BA30E940F0A9BA1A9
:10250000692F83E00E940F0A84E00E9499042091C1
:10251000C103019729F4211108C01092C00305C01E
:10252000211103C081E08093C0030E94220757CD90
:10253000CF92DF92EF92FF92CF93DF9310926B02D4
:1025400010926A0288EEC82E83E0D82EE12CF12C7E
:10255000C0926C02D0926D02E0926E02F0926F0215
:102560008AE291E090936902809368021092770268
:1025700010927602C0927802D0927902E0927A02AA
:10258000F0927B028CE391E0909375028093740249
:1025900085EC90E0909381028093800284EC90E03F
:1025A000909383028093820280EC90E09093850266
:1025B0008093840281EC90E090938702809386025E
:1025C00082EC90E0909389028093880286EC90E000
:1025D00090938B0280938A0210928D0210928E0249
:1025E00010928F021092900283E08093C20382E0E7
:1025F0008093C30361E083E00E94F20461E0809174
:10260000C3030E94F204109297031092980381E092
:102610008093990310929A0310929B0380939C03DA
:1026200010929D0380939E0310929F0381E090E09F
:102630000E94FF179093A3038093A20384E591E087
:102640009093A5038093A40382E691E09093A7035F
:102650008093A6038BE691E09093A9038093A8034F
:102660001092B103C092B203D092B303E092B403CC
:10267000F092B50385E18093B6031092B8031092EF
:10268000B7031092B9031092BA031092BB031092D1
:10269000BC0382E190E00E94FF172EE431E0FC01D0
:1026A0003183208328E6228327E0E8E1F1E0DC01A2
:1026B000139601900D922A95E1F727E0EFE1F1E002
:1026C000DC011A9601900D922A95E1F79093A103EF
:1026D0008093A0038FEF80937203809373038093A2
:1026E000740380937503CCE0D0E0D0936203C09371
:1026F00061038BE090E090936403809363038AE02E
:1027000090E0909366038093650381E090E090935E
:1027100068038093670361E08CE00E94F20461E04B
:10272000809163030E94F20461E0809165030E943E
:10273000F20461E0809165030E94C204D0936203B9
:10274000C0936103E1E2F3E0119283E0E136F80720
:10275000D9F7C0E0D0E08091670390916803C81773
:10276000D907E4F520E04FE0BE0181E193E00E944B
:102770003306D7FD0EC08091670390916803C81798
:10278000D9073CF427E04BE0BE0181E193E00E94D1
:10279000330620E049E0BE0181E193E00E94330668
:1027A000D7FD1AC08091670390916803C817D907B5
:1027B0002CF4BE0181E193E00E94BA068091670388
:1027C00090916803C817D9073CF420E04CE0BE01A3
:1027D00081E193E00E9433062196BDCFDF91CF9136
:1027E000FF90EF90DF90CF900895E89409C097FB99
:1027F0003EF490958095709561957F4F8F4F9F4FD8
:102800009923A9F0F92F96E9BB279395F69587951B
:1028100077956795B795F111F8CFFAF4BB0F11F4DE
:1028200060FF1BC06F5F7F4F8F4F9F4F16C0882385
:1028300011F096E911C0772321F09EE8872F762FBB
:1028400005C0662371F096E8862F70E060E02AF0FC
:102850009A95660F771F881FDAF7880F96958795E8
:1028600097F908950E9445140C94B6140E94A81478
:1028700038F00E94AF1420F0952311F00C949F14AF
:102880000C94A51411240C94EA140E94C71470F33C
:10289000959FC1F3950F50E0551F629FF001729F05
:1028A000BB27F00DB11D639FAA27F00DB11DAA1F14
:1028B000649F6627B00DA11D661F829F2227B00D61
:1028C000A11D621F739FB00DA11D621F839FA00DEC
:1028D000611D221F749F3327A00D611D231F849F3C
:1028E000600D211D822F762F6A2F11249F57504093
:1028F0009AF0F1F088234AF0EE0FFF1FBB1F661F0E
:10290000771F881F91505040A9F79E3F510580F0D6
:102910000C949F140C94EA145F3FE4F3983ED4F3B4
:10292000869577956795B795F795E7959F5FC1F77A
:10293000FE2B880F911D9695879597F9089597F925
:102940009F6780E870E060E008959FEF80EC089555
:1029500000240A941616170618060906089500247E
:102960000A9412161306140605060895092E0394F8
:10297000000C11F4882352F0BB0F40F4BF2B11F46C
:1029800060FF04C06F5F7F4F8F4F9F4F089557FDCB
:102990009058440F551F59F05F3F71F04795880FCD
:1029A00097FB991F61F09F3F79F087950895121664
:1029B00013061406551FF2CF4695F1DF08C0161610
:1029C00017061806991FF1CF8695710561050894C1
:1029D0000895E894BB2766277727CB0197F90895D8
:1029E0000E943215A59F900DB49F900DA49F800D5D
:1029F000911D112408952F923F924F925F926F92F2
:102A00007F928F929F92AF92BF92CF92DF92EF927E
:102A1000FF920F931F93CF93DF93CDB7DEB7CA1BFF
:102A2000DB0B0FB6F894DEBF0FBECDBF09942A882A
:102A3000398848885F846E847D848C849B84AA84D2
:102A4000B984C884DF80EE80FD800C811B81AA815F
:102A5000B981CE0FD11D0FB6F894DEBF0FBECDBF2A
:102A6000ED010895A29FB001B39FC001A39F700D17
:102A7000811D1124911DB29F700D811D1124911D86
:102A800008950E9455150C94B6140E94AF1458F086
:102A90000E94A81440F029F45F3F29F00C949F1481
:102AA00051110C94EA140C94A5140E94C71468F3F5
:102AB0009923B1F3552391F3951B550BBB27AA27F7
:102AC00062177307840738F09F5F5F4F220F331F31
:102AD000441FAA1FA9F335D00E2E3AF0E0E832D0F9
:102AE00091505040E695001CCAF72BD0FE2F29D0FC
:102AF000660F771F881FBB1F261737074807AB07CE
:102B0000B0E809F0BB0B802DBF01FF2793585F4F42
:102B10003AF09E3F510578F00C949F140C94EA14FF
:102B20005F3FE4F3983ED4F3869577956795B79524
:102B3000F7959F5FC9F7880F911D9695879597F92F
:102B40000895E1E0660F771F881FBB1F62177307A8
:102B50008407BA0720F0621B730B840BBA0BEE1FBD
:102B600088F7E09508950E94BA156894B1110C9405
:102B7000EA1408950E94CF1488F09F5798F0B92F57
:102B80009927B751B0F0E1F0660F771F881F991FA2
:102B90001AF0BA95C9F714C0B13091F00E94E91447
:102BA000B1E008950C94E914672F782F8827B85F57
:102BB00039F0B93FCCF3869577956795B395D9F7FA
:102BC0003EF490958095709561957F4F8F4F9F4F04
:102BD000089597FB16F40E942D160C94F015E894B6
:102BE000F92F96EBFF2381F0121613061406440BFF
:102BF0009395F69587957795679557954040FF2370
:102C0000B9F71BC099270895882351F49850D2F73B
:102C1000872B762F652F542F432F322F20E0B1F3CF
:102C2000121613061406440B88233AF09A95440FA3
:102C3000551F661F771F881FCAF755234AF4440F94
:102C4000551F11F460FF04C06F5F7F4F8F4F9F4F80
:102C5000880F9695879597F908959095809570952A
:102C6000609550954095309521953F4F4F4F5F4F60
:102C70006F4F7F4F8F4F9F4F0895DB018F939F932F
:102C80000E94F014BF91AF91A29F800D911DA39F50
:102C9000900DB29F900D11240895991B79E004C006
:102CA000991F961708F0961B881F7A95C9F780958B
:102CB000089597FB072E16F4009407D077FD09D0EE
:102CC0000E94E51707FC05D03EF4909581959F4F33
:102CD0000895709561957F4F0895A1E21A2EAA1B61
:102CE000BB1BFD010DC0AA1FBB1FEE1FFF1FA217BC
:102CF000B307E407F50720F0A21BB30BE40BF50BB9
:102D0000661F771F881F991F1A9469F76095709541
:102D1000809590959B01AC01BD01CF010895B7FF4F
:102D20000C94F0140E94F014821B930B0895DF930F
:102D3000CF931F930F939A9DF02D219FF00D8B9DA4
:102D4000F00D8A9DE02DF10D039FF00D029FE00D27
:102D5000F11D4E9DE00DF11D5E9DF00D4F9DF00D9E
:102D60007F936F93BF92AF925F934F93D5010E9471
:102D700032158B01AC01D7010E943215EB01E80F2F
:102D8000F91FD6010E94E7162F913F91D6010E94AC
:102D90003215C60FD71FE81FF91FAF91BF910E94D0
:102DA000E7162F913F910E943215C60FD71FE81FDB
:102DB000F91FD6010E943215E60FF71F9801BE01D8
:102DC000CF0111240F911F91CF91DF9108950E949F
:102DD0003215460F571FC81FD91F08F431960895A2
:102DE000689401C0E894F92FF12B12F00C94241789
:102DF000A0E0B0E0EEEFF6E10C940115092E059489
:102E000022F40E948017112392F4F0E80F26FFEFBE
:102E1000E094F09400951095B094C094D094A1944F
:102E2000BF0ACF0ADF0AEF0AFF0A0F0B1F0B0E942F
:102E30002F1707FC0E948017CDB7DEB7ECE00C948B
:102E40001D15689401C0E8948F929F92CF93DF93F1
:102E50000E942F17DF91CF919F908F900895882423
:102E60009924F401E401B0E49F93AA279A158B04F6
:102E70009C04ED05FE05CF05D007A10798F4AD2F02
:102E8000DC2FCF2FFE2FE92D982C892E982F872FFE
:102E9000762F652F542F432F322F2227B85031F72A
:102EA000BF9127C01B2EBF91BB27220F331F441F8A
:102EB000551F661F771F881F991F881C991CEE1FBE
:102EC000FF1FCC1FDD1FAA1FBB1F8A149B04EC052C
:102ED000FD05CE05DF05A007B10748F08A189B085D
:102EE000EC09FD09CE09DF09A00BB10B21601A9492
:102EF000E1F62EF49401AF01BE01CD01000C08955E
:102F00006095709580959095309540955095219558
:102F10003F4F4F4F5F4F6F4F7F4F8F4F9F4F0895E2
:102F20000F93083090F0982F872F762F652F542F0E
:102F3000432F322F22270850F4CF220F331F441F74
:102F4000551F661F771F881F991F0A95B2F70F91AB
:102F5000089597FB10F8169400080F93083098F026
:102F60000850232F342F452F562F672F782F892F66
:102F7000902DF4CF059497958795779567955795FC
:102F80004795379527950A95AAF70F9108952A0D29
:102F90003B1D4C1D5D1D6E1D7F1D801F911F0895E3
:102FA0002A193B094C095D096E097F09800B910BB9
:102FB00008950024A7FD00942A1730054005500508
:102FC00060057005800590050895AA1BBB1B51E1A3
:102FD00007C0AA1FBB1FA617B70710F0A61BB70B89
:102FE000881F991F5A95A9F780959095BC01CD012E
:102FF0000895EE0FFF1F0590F491E02D0994CF93F3
:10300000DF938230910510F482E090E0E091C803F4
:10301000F091C90320E030E0C0E0D0E0309711F13A
:103020004081518148175907C0F04817590761F48A
:1030300082819381209719F09B838A832BC0909380
:10304000C9038093C80326C02115310519F0421722
:10305000530718F49A01BE01DF01EF010280F381EA
:10306000E02DDCCF2115310509F1281B390B243067
:10307000310590F412968D919C911397611571050D
:1030800021F0FB019383828304C09093C903809352
:10309000C803FD01329644C0FD01E20FF31F819386
:1030A0009193225031092D933C933AC02091C6034D
:1030B0003091C703232B41F4209102013091030189
:1030C0003093C7032093C603209100013091010182
:1030D0002115310541F42DB73EB7409104015091BF
:1030E0000501241B350BE091C603F091C703E217DD
:1030F000F307A0F42E1B3F0B2817390778F0AC011B
:103100004E5F5F4F2417350748F04E0F5F1F5093F7
:10311000C7034093C6038193919302C0E0E0F0E0BF
:10312000CF01DF91CF9108950F931F93CF93DF933A
:10313000009709F48CC0FC0132971382128200912F
:10314000C8031091C9030115110581F42081318153
:10315000820F931F2091C6033091C70328173907A8
:1031600079F5F093C703E093C60371C0D80140E03E
:1031700050E0AE17BF0750F412962D913C91139773
:10318000AD012115310509F1D901F3CF9D01DA0116
:103190003383228360817181860F971F8217930783
:1031A00069F4EC0128813981260F371F2E5F3F4FCC
:1031B000318320838A819B8193838283452B29F4E9
:1031C000F093C903E093C80342C01396FC93EE93B7
:1031D0001297ED01499159919E01240F351FE21775
:1031E000F30771F480819181840F951F02961196E7
:1031F0009C938E938281938113969C938E931297C6
:10320000E0E0F0E0D80112968D919C911397009721
:1032100019F0F8018C01F6CF8D919C9198012E5FE9
:103220003F4F820F931F2091C6033091C703281789
:10323000390769F4309729F41092C9031092C80332
:1032400002C0138212821093C7030093C603DF915A
:10325000CF911F910F91089581E090E0F8940C9424
:063260003119F894FFCFC4
:103266000000CA0380003F065B4F666D7D077F6FD7
:10327600777C395E79714000000102040506037F00
:103286007F3F3F1FFF07000000008A015A013302FB
:103296002E0152013E012F01000000008B0B070298
:1032A600E506D80B1607F4060807000000002E05F1
:1032B60031031003776141646848696D73794D4441
:1032C6005900616D706D414D504D0053756E4D6FD7
:1032D6006E547565576564546875467269536174B2
:1032E6004A616E4665624D61724170724D61794AFE
:1032F600756E4A756C4175675365704F63744E6F92
:063306007644656300003F
:00000001FF
