:100000000C9475000C949D000C949D000C949D0024
:100010000C949D000C949D000C949D000C949D00EC
:100020000C949D000C949D000C949D000C949D00DC
:100030000C949D000C949D000C949D000C949D00CC
:100040000C94CC030C949D000C943C040C9416046A
:100050000C949D000C949D000C949D000C949D00AC
:100060000C946E040C949D0052077708E006770804
:1000700077087708EF0677081C07770877080D07D9
:1000800077087708770877087708D106FE0677089B
:10009000770841076108640867086A086D087008F6
:1000A000730800000000250028002B00040404044D
:1000B0000404040402020202020203030303030312
:1000C00001020408102040800102040810200102EF
:1000D00004081020000000080002010000030407CB
:1000E00000000000000000009C0511241FBECFEF9F
:1000F000D8E0DEBFCDBF11E0A0E0B1E0ECECF1E173
:1001000002C005900D92A837B107D9F722E0A8E701
:10011000B1E001C01D92AF3FB207E1F710E0C5E7C3
:10012000D0E004C02197FE010E94D208C437D10755
:10013000C9F70E94D5050C94E4080C940000382FF0
:100140002091550290915402213208F049C08091CB
:1001500031028111FCCF42E04093310230933002F2
:100160003FEF30932F0210922E0220932D02A4E332
:10017000B2E04DE052E0FA013E2F341B321718F482
:100180003D913193F9CF10920C0220910C02990FFE
:10019000922B90930C0290910B02913061F410928B
:1001A0000B0290910C029093BB009091BC0093FDC8
:1001B000F8CF95EC01C095EE9093BC009091310280
:1001C0009230E1F390912F029F3F79F080912F02BE
:1001D000803241F080912F02803331F084E005C0FD
:1001E00081E003C082E001C083E0109233021092EC
:1001F000550210923202089590E0FC01EC52FF4F3C
:100200003491FC01E054FF4F2491FC01E455FF4F71
:10021000E491EE2309F43BC0332339F1333091F0FC
:1002200038F43130A9F0323001F584B58F7D12C039
:10023000373091F03830A1F03430B9F4809180003B
:100240008F7D03C0809180008F77809380000DC0E8
:1002500084B58F7784BD09C08091B0008F7703C0CB
:100260008091B0008F7D8093B000F0E0EE0FFF1F13
:10027000EE55FF4FA591B4918FB7F894EC916111B1
:1002800003C020952E2301C02E2B2C938FBF0895E1
:10029000CF92DF92EF92FF920F931F93CF93DF9352
:1002A0006C017A018B01C0E0D0E0CE15DF0589F04A
:1002B000D8016D918D01D601ED91FC910190F081F5
:1002C000E02DC6010995892B11F47E0102C021960B
:1002D000ECCFC701DF91CF911F910F91FF90EF906D
:1002E000DF90CF900895E0917A01F0917B013097F3
:1002F00029F0109233021092550209940895AC012E
:10030000E0917801F09179013097E1F09091C4018A
:100310008091C3019817B0F090E0292F30E02617A4
:10032000370754F4DA01A20FB31F8C91D901AB53F4
:10033000BE4F8C939F5FF1CF1092C4016093C301B5
:10034000CB0109940895FC01538D448D252F30E095
:10035000842F90E0821B930B541710F0CF960895D2
:1003600001970895FC01918D828D981761F0828D1F
:10037000DF01A80FB11D5D968C91928D9F5F9F73D9
:10038000928F90E008958FEF9FEF0895FC01918D7B
:10039000828D981731F0828DE80FF11D858D90E0E8
:1003A00008958FEF9FEF0895FC01918D228D892F85
:1003B00090E0805C9F4F821B91098F73992708956D
:1003C00086E592E00E94D40121E0892B09F420E027
:1003D000822F0895FC01848DDF01A80FB11DA35A5F
:1003E000BF4F2C91848D90E001968F739927848F55
:1003F000A689B7892C93A089B1898C918370806478
:100400008C93938D848D981306C00288F389E02D18
:1004100080818F7D80830895EF92FF920F931F93C9
:10042000CF93DF93EC0181E0888F9B8D8C8D9813A7
:1004300005C0E889F989808185FD26C0F62E0B8DDF
:1004400010E00F5F1F4F0F731127E02E8C8DE81205
:100450000CC00FB607FCFACFE889F989808185FFC7
:10046000F5CFCE010E94EA01F1CF8B8DFE01E80F9E
:10047000F11DE35AFF4FF0829FB7F8940B8FEA8982
:10048000FB89808180620AC09FB7F894EE89FF895A
:100490006083E889F98980818370806480839FBF4D
:1004A00081E090E0DF91CF911F910F91FF90EF904D
:1004B0000895CF93DF93EC01888D8823C9F0EA89F2
:1004C000FB89808185FD05C0A889B9898C9186FD4D
:1004D0000FC00FB607FCF5CF808185FFF2CFA8894A
:1004E000B9898C9185FFEDCFCE010E94EA01E7CF5B
:1004F000DF91CF91089580E090E0892B29F00E9450
:10050000E00181110C940000089585ED8093BC00FA
:100510008091BC0084FDFCCF10923102089540917F
:100520009C01262F30E0240F311D21323105DCF4EF
:10053000209131022430C9F4FC0180E090E086175C
:1005400058F430919C012191DC01A458BE4FA30FB7
:10055000B11D2C930196F3CF80919C01680F60939D
:100560009C0180E0089581E0089582E00895089557
:10057000E091C4018091C301E81730F4F0E0EB533F
:10058000FE4F808190E008958FEF9FEF0895909146
:10059000C4018091C301981750F4E92FF0E0EB53A8
:1005A000FE4F208130E09F5F9093C40102C02FEF87
:1005B0003FEFC90108958091C30190E02091C401EB
:1005C000821B91090895CF92DF92EF92FF920F93D1
:1005D0001F93CF93DF937C01262F972F8A01809161
:1005E0003202882391F0C62FD72F6E01C40ED51E7C
:1005F000CC15DD0571F06991D701ED91FC91019069
:10060000F081E02DC7010995F3CF642F822F0E945E
:100610008F02C801DF91CF911F910F91FF90EF9052
:10062000DF90CF900895CF93DF931F92CDB7DEB7C1
:100630006983209132022223D1F020915502203289
:1006400040F021E030E0FC013383228380E090E041
:1006500015C080913302E82FF0E0EC5CFD4F9981EA
:1006600090838F5F809333028093550205C061E0D1
:10067000CE0101960E948F0281E090E00F90DF9101
:10068000CF910895089580E090E00895CF93C82F0A
:1006900081E08093320288E6809354021092330204
:1006A0001092550283EF92E00E9413038C2F6AE0B0
:1006B0000E94A408692F20E1829F600D112483EF1E
:1006C00092E00E94130381E0CF910C949F00009769
:1006D00069F0FC0101900020E9F73197AF01481B58
:1006E000590BBC0186E592E00C94480180E090E053
:1006F0000895CF93DF930E946703EC0186E291E0B7
:100700000E9467038C0F9D1FDF91CF9108950C9479
:1007100067038F929F92AF92BF920F931F93CF93D5
:10072000DF93CDB7DEB7A1970FB6F894DEBF0FBE4B
:10073000CDBF19A2423008F44AE08E010F5D1F4F71
:10074000842E912CA12CB12CA50194010E94B008FB
:10075000E62FB901CA0101501109EA3014F4E05D35
:1007600001C0E95CD801EC93232B242B252B61F7E6
:10077000C8010E946703A1960FB6F894DEBF0FBEB2
:10078000CDBFDF91CF911F910F91BF90AF909F9000
:100790008F9008950E94D8081F920F920FB60F9263
:1007A00011242F933F938F939F93AF93BF93809187
:1007B000070290910802A0910902B0910A023091BB
:1007C000060223E0230F2D3720F40196A11DB11D51
:1007D00005C026E8230F0296A11DB11D2093060235
:1007E0008093070290930802A0930902B0930A0233
:1007F0008091020290910302A0910402B09105023F
:100800000196A11DB11D8093020290930302A09353
:100810000402B0930502BF91AF919F918F913F91D8
:100820002F910F900FBE0F901F9018951F920F924F
:100830000FB60F9211242F933F934F935F936F93B3
:100840007F938F939F93AF93BF93EF93FF9386E52F
:1008500092E00E94EA01FF91EF91BF91AF919F91C9
:100860008F917F916F915F914F913F912F910F9059
:100870000FBE0F901F9018951F920F920FB60F92F8
:1008800011242F938F939F93EF93FF93E091660230
:10089000F09167028081E0916C02F0916D0282FD1F
:1008A00012C0908180916F028F5F8F7320917002D0
:1008B000821751F0E0916F02F0E0EA5AFD4F958FF8
:1008C00080936F0201C08081FF91EF919F918F9182
:1008D0002F910F900FBE0F901F9018951F920F929F
:1008E0000FB60F9211242F933F934F935F936F9303
:1008F0007F938F939F93AF93BF93EF93FF938091D9
:10090000B900887F803609F49CC068F5883209F404
:100910005BC090F4803109F454C038F4882309F4A2
:10092000F6C0883009F44DC0F6C0883109F44CC0D7
:10093000803209F45DC0EFC0803409F468C048F427
:10094000803309F455C0883309F0E5C080932F0245
:10095000D8C0803509F44FC0883509F45DC08834AB
:1009600009F0D9C0D6C0883909F4C7C0A8F48837BF
:1009700009F467C038F4883609F463C0803709F495
:1009800060C0C9C0883809F4B8C0803909F45FC0B4
:10099000803809F0C0C05BC0803B09F486C038F4E1
:1009A000803A09F466C0883A09F47FC0B4C0803C3C
:1009B00009F4A7C0883C09F4A4C0883B09F48AC0A4
:1009C000AAC080910C0210C090912E0280912D023D
:1009D000981770F5E0912E0281E08E0F80932E0221
:1009E000F0E0E35FFD4F80818093BB0085EC86C023
:1009F00080932F028EC0E0912E0281E08E0F8093B3
:100A00002E028091BB00F0E0E35FFD4F8083909168
:100A10002E0280912D026EC0E0912E0281E08E0F99
:100A200080932E028091BB00F0E0E35FFD4F808356
:100A30008091300281116DC081E080930B0284EAC5
:100A400061C083E0809331021092BE01CFCF8091CC
:100A5000BE01803208F051C0E091BE0181E08E0FEE
:100A60008093BE018091BB00F0E0E256FE4F808390
:100A7000BDCF85EC8093BC00109231028091BE0105
:100A8000803230F4E091BE01F0E0E256FE4F108279
:100A90006091BE0170E0E091BF01F091C0018EE96C
:100AA00091E009951092BE0136C084E08093310236
:100AB00010929D0110929C01E091C101F091C20140
:100AC000099580919C01811105C081E080939C0172
:100AD00010927C01E0919D0181E08E0F80939D0139
:100AE000F0E0E458FE4F80818093BB0090919D011F
:100AF00080919C01981708F479CF85E88093BC0019
:100B00000AC085EC8093BC001092310204C01092A0
:100B10002F020E948502FF91EF91BF91AF919F91AB
:100B20008F917F916F915F914F913F912F910F9096
:100B30000FBE0F901F901895E6E5F2E01382128227
:100B400088EE93E0A0E0B0E084839583A683B7832A
:100B500026E031E03183208325EC30E0358724879F
:100B600024EC30E03787268720EC30E0318B208B77
:100B700021EC30E0338B228B22EC30E0358B248B60
:100B800026EC30E0378B268B118E128E138E148E4E
:100B9000E3EFF2E01382128284839583A683B78306
:100BA00088E191E0918380830895CF93DF9300D013
:100BB0001F92CDB7DEB7789484B5826084BD84B5CA
:100BC000816084BD85B5826085BD85B5816085BD48
:100BD00080916E00816080936E0010928100809100
:100BE0008100826080938100809181008160809388
:100BF0008100809180008160809380008091B100AD
:100C000084608093B1008091B00081608093B000D7
:100C100080917A00846080937A0080917A0082606B
:100C200080937A0080917A00816080937A0080912D
:100C30007A00806880937A001092C100E091660289
:100C4000F091670282E08083E0916202F09163029A
:100C50001082E0916402F09165028FEC8083109223
:100C60006E02E0916A02F0916B0286E08083E0916F
:100C70006802F0916902808180618083E09168025E
:100C8000F0916902808188608083E0916802F09130
:100C90006902808180688083E0916802F091690236
:100CA00080818F7D80831092C4011092C3011092C5
:100CB0003302109255021092310281E0809330028B
:100CC00010920B0261E082E10E94FC0061E083E18E
:100CD0000E94FC008091B9008E7F8093B9008091C2
:100CE000B9008D7F8093B90088E48093B80085E4D3
:100CF0008093BC0083E791E09093C2018093C1018F
:100D00008FE791E09093C0018093BF0163E070E0B2
:100D100082E00E94460301E010E0DD24D394BB246E
:100D2000BA9486E0A82E95ECE92E91E0F92E25EEF6
:100D3000922E35EC832E86E592E00E94D401892B19
:100D400009F4D9C186E592E00E94B2012091000128
:100D500030910101F901E251FE4F2531310574F462
:100D60008A3061F08D3051F08C3241F080832F5FFA
:100D70003F4F3093010120930001BDC11082E091EB
:100D8000EF018E2FEE0F990BAA0BBB0BFC01E25467
:100D9000F109E631F10508F0AAC1EC5CFF4F0C94B3
:100DA000D20860EF71E0CE0101960E94DD08CE010D
:100DB00001960E947E088093ED0160E070E06FC0B4
:100DC00060EF71E0CE0101960E94DD08CE01019630
:100DD0000E947E088093EC0161E070E060C060EFEB
:100DE00071E0CE0101960E94DD08CE0101960E94BD
:100DF0007E088093EB0162E070E051C060EF71E02B
:100E0000CE0101960E94DD08CE0101960E947E0867
:100E10008093EA0164E070E042C060EF71E0CE01CF
:100E200001960E94DD08CE0101960E947E08809303
:100E3000E90165E070E033C062EF71E0CE01019638
:100E40000E94DD08CE0101960E947E088093E80191
:100E500066E070E00E9446038091E5019091E60112
:100E6000892B29F41093E6010093E50104C0109248
:100E7000E6011092E5016091E5018DE00E94FC0021
:100E800036C160EF71E0CE0101960E94DD08CE010F
:100E900001960E947E088093E70163E070E00E9463
:100EA000460325C1D092320228E6209354021092C4
:100EB00033021092550260E083EF92E00E94130328
:100EC00081E00E949F00809131028111FCCFD0927D
:100ED0003102D0923002B0922F0210922E02A092D4
:100EE0002D02D0920C0280910C02806D80930C0236
:100EF00080910B02813069F410920B0280910C02F8
:100F00008093BB008091BC0083FDF8CF8092BC0031
:100F100002C09092BC00809131028130E1F3809157
:100F20002E02873018F480912E0201C087E0ADE0D8
:100F3000B2E0E5ECF1E09E2F9E19981718F49D9110
:100F40009193F9CF1092C4018093C30183EF92E093
:100F50000E94C702982F9695969596959E70692E39
:100F6000660C660C690E8F70680E83EF92E00E942B
:100F7000C702982F92959F708F70582E2AE0929FEB
:100F8000500C112483EF92E00E94C702282F26956F
:100F9000269526952670622F660F660F260F8F7096
:100FA000C22EC80E83EF92E00E94C702982F92953E
:100FB0009F708F70782E2AE0929F700C112483EF1F
:100FC00092E00E94C702982F92959F708F70282EF2
:100FD0002AE0929F200C112483EF92E00E94C70226
:100FE000982F92959F708F70382E2AE0929F300C28
:100FF000112483EF92E00E94C702982F92959F7070
:101000008F70482E2AE0929F400C11246C2D70E0C6
:1010100080E090E04AE00E94890389E291E00E942A
:10102000870389E0851520F08BE291E00E94870319
:10103000652D70E080E090E04AE00E94890389E23B
:1010400091E00E94870329E0261520F08BE291E0D1
:101050000E948703662D70E080E090E04AE00E94E5
:1010600089038CE391E00E948703622D70E080E0A9
:1010700090E04AE00E9489038DE291E00E9487039C
:10108000632D70E080E090E04AE00E9489038DE2E9
:1010900091E00E948703642D70E080E090E04AE0D8
:1010A0000E9489038FE291E00E948703872D90E0E0
:1010B000FC013197E730F105D0F4E65BFF4F0C946B
:1010C000D2088EE391E011C085E491E00EC08CE47B
:1010D00091E00BC084E591E008C08EE591E005C089
:1010E00087E691E002C08EE691E00E9479031093BA
:1010F0000101009300010E947B021DCEFC018827A4
:101100009927E89421912032E9F3293010F02E300C
:10111000C8F32B3241F02D3239F4689404C00E9498
:101120009C08820F911D219120532A30C0F31EF498
:10113000909581959F4F08957AE0979F902D879F76
:10114000802D910D11240895991B79E004C0991FF9
:10115000961708F0961B881F7A95C9F78095089511
:10116000A1E21A2EAA1BBB1BFD010DC0AA1FBB1FAB
:10117000EE1FFF1FA217B307E407F50720F0A21B1D
:10118000B30BE40BF50B661F771F881F991F1A948A
:1011900069F760957095809590959B01AC01BD01B4
:1011A000CF010895EE0FFF1F0590F491E02D0994F3
:1011B00081E090E0F8940C94E408FB01DC010190DC
:0C11C0000D920020E1F70895F894FFCF95
:1011CC000100000000000C024801A3015902D401E7
:1011DC00B201C601000000001303E3024303B7028F
:1011EC00DB02C702B8020D0A003A0030002F0020C3
:1011FC00446179206F66207765656B3A20005375E2
:10120C006E646179004D6F6E64617900547565731D
:10121C00646179005765646E657364617900546824
:10122C007572736461790046726964617900536107
:08123C00747572646179000011
:00000001FF
