:100000000C9458000C9480000C9480000C94800098
:100010000C9480000C9480000C9480000C94800060
:100020000C9480000C9480000C9480000C94800050
:100030000C9480000C9480000C9480000C94800040
:100040000C9454030C9480000C94C4030C949E03F1
:100050000C9480000C9480000C9480000C94800020
:100060000C94F6030C94800000000000250028008A
:100070002B00040404040404040402020202020229
:10008000030303030303010204081020408001025C
:1000900004081020010204081020000000080002DB
:1000A0000100000304070000000000000000240518
:1000B00011241FBECFEFD8E0DEBFCDBF11E0A0E01E
:1000C000B1E0EAE1FEE002C005900D92AC39B10763
:1000D000D9F723E0ACE9B1E001C01D92A630B20728
:1000E000E1F710E0C8E5D0E004C02197FE010E94CE
:1000F0000007C735D107C9F70E945D050C940B07AF
:100100000C94000090E0FC01E656FF4F2491FC01A6
:10011000EA57FF4F3491FC01EE58FF4FE491EE2374
:10012000B1F1222339F1233091F038F42130A9F0D4
:10013000223001F584B58F7D12C0273091F0283030
:10014000A1F02430B9F4809180008F7D03C08091AC
:1001500080008F77809380000DC084B58F7784BD39
:1001600009C08091B0008F7703C08091B0008F7D6F
:100170008093B000F0E0EE0FFF1FE859FF4FA5910C
:10018000B4918FB7F894EC913E2B3C938FBF0895B8
:100190003FB7F8948091590290915A02A0915B0266
:1001A000B0915C0226B5A89B05C02F3F19F00196BF
:1001B000A11DB11D3FBFBA2FA92F982F8827820FED
:1001C000911DA11DB11DBC01CD0142E0660F771F3D
:1001D000881F991F4A95D1F70895CF92DF92EF9229
:1001E000FF920F931F93CF93DF936C017A018B01E2
:1001F000C0E0D0E0CE15DF0589F0D8016D918D010A
:10020000D601ED91FC910190F081E02DC601099598
:10021000892B11F47E0102C02196ECCFC701DF913A
:10022000CF911F910F91FF90EF90DF90CF900895A5
:10023000E091BE01F091BF01309729F01092310298
:100240001092530209940895CF93DF93AC01E0918B
:10025000BC01F091BD013097F1F0909108028091BE
:1002600007029817C0F090E0292F30E026173707D3
:1002700054F4D901A456BE4FEA01C20FD31F88819E
:100280008C939F5FF1CF1092080260930702CB011D
:10029000DF91CF910994DF91CF910895FC01538DA7
:1002A000448D252F30E0842F90E0821B930B541750
:1002B00010F0CF96089501970895FC01918D828DDD
:1002C000981761F0828DDF01A80FB11D5D968C91AA
:1002D000928D9F5F9F73928F90E008958FEF9FEFB5
:1002E0000895FC01918D828D981731F0828DE80F71
:1002F000F11D858D90E008958FEF9FEF0895FC012B
:10030000918D228D892F90E0805C9F4F821B9109F7
:100310008F73992708958DE592E00E947F0121E077
:10032000892B09F420E0822F0895FC01848DDF01E0
:10033000A80FB11DA35ABF4F2C91848D90E0019658
:100340008F739927848FA689B7892C93A089B18947
:100350008C91837080648C93938D848D981306C0E8
:100360000288F389E02D80818F7D80830895EF924C
:10037000FF920F931F93CF93DF93EC0181E0888F5F
:100380009B8D8C8D981305C0E889F989808185FD46
:1003900026C0F62E0B8D10E00F5F1F4F0F73112735
:1003A000E02E8C8DE8120CC00FB607FCFACFE8895E
:1003B000F989808185FFF5CFCE010E949501F1CFAB
:1003C0008B8DFE01E80FF11DE35AFF4FF0829FB7BE
:1003D000F8940B8FEA89FB89808180620AC09FB7FD
:1003E000F894EE89FF896083E889F98980818370B8
:1003F000806480839FBF81E090E0DF91CF911F9167
:100400000F91FF90EF900895CF93DF93EC01888DCB
:100410008823C9F0EA89FB89808185FD05C0A88908
:10042000B9898C9186FD0FC00FB607FCF5CF80818E
:1004300085FFF2CFA889B9898C9185FFEDCFCE01D8
:100440000E949501E7CFDF91CF91089580E090E081
:10045000892B29F00E948B0181110C9400000895D2
:1004600085ED8093BC008091BC0084FDFCCF109290
:100470002F0208954091E001262F30E0240F311D16
:1004800021323105DCF420912F022430C9F4FC0123
:1004900080E090E0861758F43091E0012191DC0172
:1004A000A054BE4FA30FB11D2C930196F3CF8091A2
:1004B000E001680F6093E00180E0089581E0089515
:1004C00082E008950895E091080280910702E817FC
:1004D00030F4F0E0E456FE4F808190E008958FEF15
:1004E0009FEF08959091080280910702981750F4A9
:1004F000E92FF0E0E456FE4F208130E09F5F9093BB
:10050000080202C02FEF3FEFC90108958091070252
:1005100090E020910802821B91090895CF92DF920A
:10052000EF92FF920F931F93CF93DF937C01262FBF
:10053000972F8A0180913002882391F0C62FD72F00
:100540006E01C40ED51ECC15DD0571F06991D70181
:10055000ED91FC910190F081E02DC7010995F3CF59
:10056000642F822F0E943A02C801DF91CF911F9120
:100570000F91FF90EF90DF90CF900895CF93DF938E
:100580001F92CDB7DEB76983209130022223D1F0CC
:1005900020915302203240F021E030E0FC0133830F
:1005A000228380E090E015C080913102E82FF0E0D6
:1005B000EE5CFD4F998190838F5F80933102809331
:1005C000530205C061E0CE0101960E943A0281E02B
:1005D00090E00F90DF91CF910895089580E090E032
:1005E0000895009769F0FC0101900020E9F7319728
:1005F000AF01481B590BBC018DE592E00C94ED0056
:1006000080E090E00895CF93DF930E94F102EC0127
:1006100084E291E00E94F1028C0F9D1FDF91CF9147
:1006200008958F929F92AF92BF920F931F93CF9393
:10063000DF93CDB7DEB7A1970FB6F894DEBF0FBE3C
:10064000CDBF19A2423008F44AE08E010F5D1F4F62
:10065000842E912CA12CB12CA50194010E94DE06C0
:10066000E62FB901CA0101501109EA3014F4E05D26
:1006700001C0E95CD801EC93232B242B252B61F7D7
:10068000C8010E94F102A1960FB6F894DEBF0FBE1A
:10069000CDBFDF91CF911F910F91BF90AF909F90F1
:1006A0008F9008950E9406071F920F920FB60F9227
:1006B00011242F933F938F939F93AF93BF93809178
:1006C000550290915602A0915702B0915802309174
:1006D000540223E0230F2D3720F40196A11DB11DF4
:1006E00005C026E8230F0296A11DB11D20935402D8
:1006F0008093550290935602A0935702B0935802EC
:100700008091590290915A02A0915B02B0915C02D3
:100710000196A11DB11D8093590290935A02A09396
:100720005B02B0935C02BF91AF919F918F913F911B
:100730002F910F900FBE0F901F9018951F920F9240
:100740000FB60F9211242F933F934F935F936F93A4
:100750007F938F939F93AF93BF93EF93FF938DE519
:1007600092E00E949501FF91EF91BF91AF919F910F
:100770008F917F916F915F914F913F912F910F904A
:100780000FBE0F901F9018951F920F920FB60F92E9
:1007900011242F938F939F93EF93FF93E0916D021A
:1007A000F0916E028081E0917302F091740282FDFB
:1007B00012C09081809176028F5F8F7320917702B3
:1007C000821751F0E0917602F0E0E35AFD4F958FE9
:1007D0008093760201C08081FF91EF919F918F916C
:1007E0002F910F900FBE0F901F9018951F920F9290
:1007F0000FB60F9211242F933F934F935F936F93F4
:100800007F938F939F93AF93BF93EF93FF938091C9
:10081000B900887F803609F49CC068F5883209F4F5
:100820005BC090F4803109F454C038F4882309F493
:10083000F6C0883009F44DC0F6C0883109F44CC0C8
:10084000803209F45DC0EFC0803409F468C048F418
:10085000803309F455C0883309F0E5C080932D0238
:10086000D8C0803509F44FC0883509F45DC088349C
:1008700009F0D9C0D6C0883909F4C7C0A8F48837B0
:1008800009F467C038F4883609F463C0803709F486
:1008900060C0C9C0883809F4B8C0803909F45FC0A5
:1008A000803809F0C0C05BC0803B09F486C038F4D2
:1008B000803A09F466C0883A09F47FC0B4C0803C2D
:1008C00009F4A7C0883C09F4A4C0883B09F48AC095
:1008D000AAC080910A0210C090912C0280912B0234
:1008E000981770F5E0912C0281E08E0F80932C0216
:1008F000F0E0E55FFD4F80818093BB0085EC86C012
:1009000080932D028EC0E0912C0281E08E0F8093A7
:100910002C028091BB00F0E0E55FFD4F8083909159
:100920002C0280912B026EC0E0912C0281E08E0F90
:1009300080932C028091BB00F0E0E55FFD4F808347
:1009400080912E0281116DC081E08093090284EABA
:1009500061C083E080932F0210920202CFCF80917A
:100960000202803208F051C0E091020281E08E0F55
:10097000809302028091BB00F0E0EE51FE4F808335
:10098000BDCF85EC8093BC0010922F0280910202B3
:10099000803230F4E0910202F0E0EE51FE4F10821E
:1009A0006091020270E0E0910302F091040282EE95
:1009B00091E009951092020236C084E080932F02E4
:1009C0001092E1011092E001E0910502F09106021F
:1009D00009958091E001811105C081E08093E001DB
:1009E0001092C001E091E10181E08E0F8093E1015E
:1009F000F0E0E054FE4F80818093BB009091E101D4
:100A00008091E001981708F479CF85E88093BC00C5
:100A10000AC085EC8093BC0010922F0204C0109293
:100A20002D020E943002FF91EF91BF91AF919F91F3
:100A30008F917F916F915F914F913F912F910F9087
:100A40000FBE0F901F901895EDE5F2E01382128211
:100A500088EE93E0A0E0B0E084839583A683B7831B
:100A600024E031E03183208325EC30E03587248792
:100A700024EC30E03787268720EC30E0318B208B68
:100A800021EC30E0338B228B22EC30E0358B248B51
:100A900026EC30E0378B268B118E128E138E148E3F
:100AA000EAEFF2E01382128284839583A683B783F0
:100AB00086E191E0918380830895789484B5826083
:100AC00084BD84B5816084BD85B5826085BD85B5F2
:100AD000816085BD80916E00816080936E00109270
:100AE00081008091810082608093810080918100EB
:100AF000816080938100809180008160809380007C
:100B00008091B10084608093B1008091B0008160D9
:100B10008093B00080917A00846080937A00809105
:100B20007A00826080937A0080917A00816080935D
:100B30007A0080917A00806880937A001092C100D8
:100B40001092080210920702109231021092530282
:100B500010922F0281E080932E021092090282E10E
:100B60000E94820083E10E9482008091B9008E7F02
:100B70008093B9008091B9008D7F8093B90088E49B
:100B80008093B80085E48093BC0088E191E0909365
:100B900006028093050284E291E090930402809320
:100BA0000302E0916D02F0916E0282E08083E09199
:100BB0006902F0916A021082E0916B02F0916C027E
:100BC0008FEC808310927502E0917102F0917202B5
:100BD00086E08083E0916F02F091700280818061F5
:100BE0008083E0916F02F091700280818860808341
:100BF000E0916F02F0917002808180688083E091C3
:100C00006F02F091700280818F7D808387E291E096
:100C10000E94030305EE65ECB62E11E072E0A72EEC
:100C200099249A9484E391E00E94030358E0C52E2E
:100C3000D12CE12CF12CC0E0D0E010933002C09216
:100C40005202109231021092530280912F028111B0
:100C5000FCCFA0922F0210932E0290922D021092A0
:100C60002C0210922B0210920A0290910A02960115
:100C7000220F331F292B20930A02909109029130F1
:100C800069F41092090290910A029093BB0090912E
:100C9000BC0093FDF8CFB092BC0002C00093BC0032
:100CA00090912F029230E1F390912D029F3F69F0D5
:100CB00080912D02803231F080912D02803321F01D
:100CC00084E003C082E001C083E010923102109200
:100CD000530210923002811119C080E491E00E9409
:100CE000F10220E1C216D104E104F10420F48FE501
:100CF00091E00E94F10240E1C701B6010E94110398
:100D000081E691E00E940303219619C08430B9F472
:100D100084E691E00E94F10280E1C816D104E1046A
:100D2000F10420F48FE591E00E94F10240E1C70157
:100D3000B6010E94110384E291E00E94F1022FEFBC
:100D4000C21AD20AE20AF20A8FE7C816D104E104F5
:100D5000F10409F072CFCD2B19F48FE791E002C0B6
:100D600085E991E00E9403030E94C8002B013C0129
:100D700088EEC82E83E0D82EE12CF12C0E94C8000A
:100D8000DC01CB0184199509A609B709883E934077
:100D9000A105B10558F021E0C21AD108E108F10817
:100DA00088EE480E83E0581E611C711CC114D104EA
:100DB000E104F10419F70E94260234CFA1E21A2EB1
:100DC000AA1BBB1BFD010DC0AA1FBB1FEE1FFF1FEF
:100DD000A217B307E407F50720F0A21BB30BE40B3F
:100DE000F50B661F771F881F991F1A9469F7609586
:100DF0007095809590959B01AC01BD01CF01089540
:100E0000EE0FFF1F0590F491E02D099481E090E032
:0A0E1000F8940C940B07F894FFCF40
:100E1A0000000000B701ED004E0104027F015D01F0
:100E2A00710100000000BE028E02EE02620286021A
:100E3A00720263020D0A000A493243205363616E4B
:100E4A006E6572005363616E6E696E672E2E2E0098
:100E5A004932432064657669636520666F756E64FE
:100E6A002061742061646472657373203078003085
:100E7A0000202100556E6B6E6F77206572726F725B
:100E8A002061742061646472657373203078004E47
:100E9A006F20493243206465766963657320666F03
:0C0EAA00756E640A00646F6E650A00003B
:00000001FF
