:100000000C94DB000C9403010C9403010C94030189
:100010000C9403010C9403010C9403010C94030150
:100020000C9403010C9403010C94C8040C943A053D
:100030000C9403010C9403010C9403010C94030130
:100040000C9403010C9403010C9403010C94030120
:100050000C9403010C9403010C9403010C947E0492
:100060000C9403010C9403010C9403010C94030100
:100070000C9403010C9403010C9403010C940301F0
:100080000C9403010C9403010C9403010C940301E0
:100090000C9403010C9403010C9403010C940301D0
:1000A0000C9403010C9403010C940301460C490CBD
:1000B000380C3C0C400C6A0C6A0C6A0C4D0C510C50
:1000C000550C5B0C5F0C6A0C650C000000002400F2
:1000D00027002A002D003000080B00020202010058
:1000E000090400000102020000052400100105249B
:1000F000010101042402060524060001070581030D
:1001000010004009040100020A0000000705020275
:1001100040000007058302400000040309041201A7
:100120000002EF020140412341800001010203016E
:1001300041726475696E6F204C4C43004172647566
:10014000696E6F2059756E000000000025002800C0
:100150002B002E00310004040404040304050202F1
:100160000202040302020202060606060606040450
:1001700002020204040408020110408040102040E2
:10018000804080080204018040201002011080108D
:10019000204040200000000200090F00000304017D
:1001A000000C000000000000000000000000000043
:1001B000000000003B0E11241FBECFEFDAE0DEBFCF
:1001C000CDBF22E0A8EAB1E001C01D92A134B20780
:1001D000E1F711E0A0E0B1E0E0E7F0E202C0059055
:1001E0000D92A83AB107D9F710E0CBEDD0E004C0EA
:1001F0002197FE010E94EA0ECA3DD107C9F70E946D
:10020000F50C0C9436100C9400004091AA0150910A
:10021000AB012091A8013091A90142175307B4F412
:100220009091E8009570E1F39091E80092FD19C07B
:100230008093F1008091AA019091AB0101968F7398
:100240009927892B19F48EEF8093E8008091AA01F9
:100250009091AB0101969093AB018093AA0181E04C
:10026000089580E00895DF92EF92FF920F931F931D
:10027000CF93DF93D82E8A017B01E40EF51EEB01AC
:10028000CE15DF0571F0D7FE03C0FE01849101C0D9
:1002900088810E94050121968111F2CF8FEF9FEF97
:1002A00001C0C801DF91CF911F910F91FF90EF9096
:1002B000DF900895615030F02091F100FC0120831F
:1002C0000196F8CF289884E68093B9010895CF92DB
:1002D000DF92EF92FF920F931F93CF93DF936C0106
:1002E0007A018B01C0E0D0E0CE15DF0589F0D8019E
:1002F0006D918D01D601ED91FC910190F081E02D81
:10030000C6010995892B11F47E0102C02196ECCF1C
:10031000C701DF91CF911F910F91FF90EF90DF9078
:10032000CF900895CF93DF931F92CDB7DEB7698347
:10033000DC01ED91FC910280F381E02D41E050E081
:10034000BE016F5F7F4F09950F90DF91CF910895A8
:1003500083E08093E9008091F200882319F08AE31A
:100360008093E8000895FC018485958597FD0BC076
:100370009FB7F89482E08093E9008091F2009FBFDC
:1003800090E0019608959FB7F89482E08093E90089
:100390008091F2009FBF90E00895089580E090E082
:1003A00008958093BB0084E88093BC0081E69AEEB8
:1003B0002091BC0027FD03C00197D1F706C09091A2
:1003C000B900987F81E0983209F080E00895880FA5
:1003D000860F8093BB0084E88093BC0081E69AEE90
:1003E0002091BC0027FD03C00197D1F711C0809177
:1003F000B900887F803421F4662311F081E00895EC
:100400009091B900987F983119F481E0862708957A
:1004100080E0089584E98093BC0081E69AEE209103
:10042000BC0024FD02C00197D1F78BE490E0019756
:10043000F1F7089584EA8093BC0081E69AEE20915A
:10044000BC0027FD03C00197D1F706C09091B90009
:10045000987F81E0983009F080E00895FF920F9333
:100460001F93CF93DF93EC01F62E042F11E0198B2D
:100470000E941A028823B9F0198B60E08A810E94D9
:10048000E701882381F082E0898B8F2D0E94D101C2
:10049000882349F083E0898B802F0E94D101882333
:1004A00011F084E0898B0E940A0281E099899430DE
:1004B00009F080E0DF91CF911F910F91FF90089597
:1004C0001F93CF93DF93EC01162F81E0898B0E945D
:1004D0001A02882379F160E08A810E94E70188236B
:1004E00049F1812F0E94D101882321F184EA809370
:1004F000BC0081E69AEE2091BC0027FD03C0019765
:10050000D1F718C08091B900887F803199F461E0FB
:100510008A810E94E701882369F084E88093BC0007
:1005200081E69AEE2091BC0027FD0BC00197D1F720
:1005300080E0898B0E940A028989DF91CF911F9107
:1005400008958091B9008091B900887F883581F73E
:100550008091BB00EECF0F931F93CF93DF93EC01FD
:10056000062F142FE881F9810280F381E02D09958F
:10057000898BFE01E00FF11D9285492F409548239C
:10058000142B982B412F49236381CE01DF91CF910A
:100590001F910F910C942E020F931F93CF93DF9313
:1005A0001F92CDB7DEB782E0898342E450E068ED68
:1005B00070E080E80E9433010E94070CDC01129673
:1005C0000D911C9113970115110569F0D801ED915A
:1005D000FC910280F381E02DBE016F5F7F4FC80167
:1005E000099597FF07C089810F90DF91CF911F91E7
:1005F0000F910895F80100851185E5CF0F931F93A2
:10060000CF93DF938C01C62F61E070E080E090E033
:100610000E947E0CC8018C0F911DEC016B81C801FA
:100620000E9460029A858923DF91CF911F910F91DB
:1006300008958F929F92AF92BF92CF92DF92EF92E6
:10064000FF920F931F93CF93DF935C016B017A01AD
:1006500080910B01882309F45BC08091BA01882343
:1006600009F456C08091AE0180FF05C08091E00082
:1006700082608093E000E70110E00AEF83E0882EBB
:100680009AE3992E2097D9F10E94F60B81110AC0A6
:10069000015009F43DC061E070E080E090E00E940C
:1006A0007E0CF0CF282F30E0C217D3070CF48C2F2C
:1006B0004FB7F8948092E9009091E80095FF1DC033
:1006C000282F30E0C21BD30BF601982F915020F059
:1006D00081918093F100FACFC20ED31E112319F03D
:1006E0009092E80009C08091E80085FD06C09092D4
:1006F000E80011E0209709F010E04FBFC3CF1111BF
:10070000C3CF5D9884E68093AF011E141F0444F0AC
:1007100081E090E0F5019383828380E090E001C066
:10072000C701DF91CF911F910F91FF90EF90DF9064
:10073000CF90BF90AF909F908F9008950E94F60B3E
:1007400090E00895CF93DF931F92CDB7DEB7FC0101
:100750008485958597FD05C02FEF3FEF358724876A
:100760000BC0CE0101960E94CC0B019719F4898130
:1007700090E002C08FEF9FEF0F90DF91CF9108952F
:100780000F931F93CF93DF931F92CDB7DEB78C01EA
:10079000FC018485958597FF0EC0CE0101960E94CD
:1007A000CC0B019719F4298130E002C02FEF3FEF05
:1007B000F80135872487F801848595850F90DF91AE
:1007C000CF911F910F910895CF93DF93EC01E7E74D
:1007D000F1E02491E8E5F1E084918823C9F090E00C
:1007E000880F991FFC01E653FF4F45915491FC017E
:1007F000E85BFE4FA591B4919FB7F894FA01808110
:100800002095822380838C91E22FE823EC939FBF75
:10081000E8E7F1E08491E9E5F1E024912223D9F0C1
:1008200030E0220F331FF901E653FF4F45915491F9
:10083000F901E85BFE4FA591B4912FB7F894FA0146
:100840009081382F3095892F832380838C91E32FDB
:10085000E823EC932FBF61E082E00E941B0C61E073
:1008600083E00E941B0C88E48093B8008091B8005C
:100870008A3018F48AE08093B8008091B9008C7FA8
:100880008093B90060E0CE010E946002898B87FFEF
:1008900006C0482F4F7760E0CE010E942E0262E032
:1008A000CE010E946002898B86FF06C0482F4F7BD5
:1008B00062E0CE010E942E0267E0CE010E9460023B
:1008C000898B982F937011F484FD09C08C7E482F7A
:1008D000406167E0CE01DF91CF910C942E02DF9151
:1008E000CF9108952FB7F8946091B1017091B20142
:1008F0008091B3019091B4012FBF08951F920F9280
:100900000FB60F9211242F933F938F939F93AF9322
:10091000BF938091B1019091B201A091B301B091C8
:10092000B4013091B00123E0230F2D3720F401965C
:10093000A11DB11D05C026E8230F0296A11DB11D02
:100940002093B0018093B1019093B201A093B301C1
:10095000B093B4018091B5019091B601A091B70117
:10096000B091B8010196A11DB11D8093B50190937E
:10097000B601A093B701B093B801BF91AF919F9119
:100980008F913F912F910F900FBE0F901F90189550
:100990001F920F920FB60F9211248F939F93809105
:1009A000E1009091E100937F9093E10083FF0FC0FD
:1009B0001092E90091E09093EB001092EC0092E32A
:1009C0009093ED001092BA0198E09093F00082FFAE
:1009D00020C093E09093E9009091F200992319F0E0
:1009E0009AE39093E8009091AF01992339F09091A8
:1009F000AF0191509093AF01992389F19091B90182
:100A0000992339F09091B90191509093B9019923AC
:100A100041F184FF10C08091E2008E7E816080935E
:100A2000E2008091E1008F7E8093E1008091AE0131
:100A30008E7E806111C080FF16C08091E2008E7EA4
:100A400080618093E2008091E1008E7E8093E100DE
:100A50008091AE018E7E81608093AE0104C05D9A6C
:100A6000CDCF289AD6CF9F918F910F900FBE0F9028
:100A70001F9018951F920F920FB60F921124CF92CC
:100A8000DF92EF92FF920F931F932F933F934F9319
:100A90005F936F937F938F939F93AF93BF93EF93E6
:100AA000FF93CF93DF93CDB7DEB76C97DEBFCDBF9B
:100AB0001092E9008091E80083FFFAC168E0CE015E
:100AC00045960E945A0182EF8093E8008D8987FF46
:100AD00005C09091E80090FFFCCF03C09EEF90937B
:100AE000E800982F907609F0C6C09E892F89188D4E
:100AF00091110CC0803829F48091AD018093F100F0
:100B000002C01092F1001092F10049C1422F50E052
:100B1000512B913051F4811142C14130510509F0FE
:100B20003EC18091AD018D7F0BC0933061F4811186
:100B300036C14130510509F032C18091AD0182606A
:100B40008093AD012CC1953041F48091E80080FF85
:100B5000FCCF20682093E30022C1963009F05FC0EB
:100B6000EB8CFC8C1092E9001092AB011092AA0160
:100B7000123091F51092A9011092A8010E94CC02A6
:100B800099E0BE016F5F7F4FDB01E92F1D92EA956F
:100B9000E9F799831A8391E09E8390EA98879AEF08
:100BA00099872091AA013091AB01275F3F4F3C8389
:100BB0002B838D831092E9001092AB011092AA0151
:100BC000F092A901E092A80149E050E080E00E9483
:100BD00033010E94CC02E3C0F092A901E092A80187
:100BE0000E94070CDC011296ED90FC901397E11423
:100BF000F10409F4C1C0D701ED91FC910480F581A5
:100C0000E02DBE016B5E7F4FC7010995009719F07B
:100C10000CF0C5C0C8C0F701E084F184E8CF97307C
:100C200009F4C1C0983021F481E08093F100B7C08D
:100C3000993009F0B4C0837009F0B5C0E3E1F1E088
:100C400081E021E036E39081992361F08093E9000F
:100C50002093EB0091919093EC003093ED008F5F27
:100C6000873089F78EE78093EA001092EA008F8937
:100C70008093BA0194C08B8D9C8D1092E9001092E4
:100C8000AB011092AA019093A9018093A801898DCC
:100C9000811159C08E899D89913A59F4813209F0A8
:100CA00082C047E050E064E071E080E00E943301E0
:100CB00076C0913209F077C0833289F4888D90E054
:100CC000982F88272F89822BA0E0B0E08093000125
:100CD00090930101A0930201B093030160C08032A0
:100CE00069F48091E80082FFFCCF67E084E091E046
:100CF0000E945A018BEF8093E80051C0823209F0C4
:100D00004EC08F8980930B01EEEFFFE785919491A0
:100D10008B3F9C4D19F4EEEFFAE002C0E0E0F8E002
:100D20008091040190910501A0910601B091070105
:100D3000803B9440A105B10509F079C080910B0179
:100D400080FF95C074C00E94070CFC0102811381D2
:100D50000115110541F1D801ED91FC910190F0814F
:100D6000E02DBE016B5E7F4FC8010995811117C050
:100D7000F80100851185ECCF113009F44EC0133015
:100D800091F48F89882309F445C0823081F440E8CA
:100D90006BE08CE391E00E94B80C882321F08EEF89
:100DA0008093E80085C081E28093EB0081C08130B0
:100DB00029F440E86BE080E391E0EDCF833099F7D0
:100DC0000E94070CDC011296ED90FC9013978E01A7
:100DD0000F5F1F4F6801E114F10479F0D701ED9125
:100DE000FC910680F781E02DB801C7010995080F35
:100DF000111DF701E084F184EECFD8011C92F601B9
:100E000001900020E9F73197BF016C197D0940E09E
:100E1000C601C1CF6AE171E002C06EE171E0611507
:100E2000710509F2FB01449150E080E83FCF8081D9
:100E300091818737974709F0B2CFA89580916000DC
:100E40008861809360008091AC0180936000EE3FE8
:100E5000BAE0FB0739F08091FE0A9091FF0A918376
:100E600080839DCF1092FF0A1092FE0A98CFEE3F2A
:100E70008AE0F80751F0808191818737A7E79A07C8
:100E800021F09093FF0A8093FE0A87E797E791830A
:100E90008083809160008093AC019BE088E10FB675
:100EA000F894A895809360000FBE9093600077CF70
:100EB0006C960FB6F894DEBF0FBECDBFDF91CF9119
:100EC000FF91EF91BF91AF919F918F917F916F9122
:100ED0005F914F913F912F911F910F91FF90EF9054
:100EE000DF90CF900F900FBE0F901F9018953FB7D7
:100EF000F8948091B5019091B601A091B701B0919D
:100F0000B80126B5A89B05C02F3F19F00196A11D79
:100F1000B11D3FBFBA2FA92F982F8827820F911D8F
:100F2000A11DB11DBC01CD0142E0660F771F881FD6
:100F3000991F4A95D1F70895CF92DF92EF92FF92D1
:100F40000F931F93CF93DF93C82FD62F042F11E059
:100F500080912502821310E00E947204C090260244
:100F6000D0902702E0902802F0902902A701960174
:100F70000E94C80EF694E794D794C7946C157D052B
:100F80008E059F0508F442C0D23009F442C028F40F
:100F9000DD2351F0D13011F115C1D33009F467C010
:100FA000D43009F4B1C00EC1E0911602F0911702DD
:100FB000E00FF11D111105C0C73008F0C6E0C05D9B
:100FC00001C0C0E2C083FEC0D33008F04CC0DD23B6
:100FD00009F4EEC0D13009F0F5C010E0C43608F0D5
:100FE000C3E6202F30E0E0911602F0911702E20FE5
:100FF000F31F111106C08C2F6AE00E94A80E805DBD
:1010000001C080E280832F5F3F4FC1C0D230E1F644
:1010100010E0C73008F0C6E0202F30E0E091160263
:10102000F0911702E20FF31F111108C0A0911A02EC
:10103000B0911B02AC0FB11D8C9101C080E2808386
:101040002F5F3F4FE0911602F0911702E20FF31F5E
:10105000111153C0A0911A02B0911B02AC0FB11D27
:1010600011968C914BC0D33009F04AC010E0C733C1
:1010700008F0C6E3E02FF0E0A0911602B09117024D
:101080009D012E0F3F1F111109C080911C029091EC
:101090001D028C0F911DDC018C9101C080E2D901F1
:1010A0008C93A0911602B0911702CF0101969D0179
:1010B000280F391F11110AC080911C0290911D0246
:1010C0008C0F911DDC0111968C9101C080E2D90139
:1010D0008C939F012E5F3F4FE0911602F091170213
:1010E000E20FF31F111109C0A0911C02B0911D0263
:1010F000AC0FB11D12968C9101C080E2808362C05A
:10110000D43009F05FC010E0C43608F0C3E6202FE9
:1011100030E0E0911602F0911702E20FF31F111177
:101120000AC080912A0290E001976AE070E00E9474
:10113000B40E605D01C060E26083E0911602F09140
:101140001702C9010196E80FF91F11110AC0809119
:101150002A0290E001976AE070E00E94B40E805D80
:1011600001C080E28083E0911602F0911702C9016C
:101170000296E80FF91F111106C08C2F6AE00E9439
:10118000A80E805D01C080E280832D5F3F4FE0911B
:101190001602F0911702E20FF31F111106C08C2FF7
:1011A0006AE00E94A80E905D01C090E290830AC0A0
:1011B000C73008F0C6E0E0911602F0911702E00F88
:1011C000F11DFDCEDF91CF911F910F91FF90EF9018
:1011D000DF90CF9008950E943110CF93DF93CBE042
:1011E000D2E089859A85DC01ED91FC910280F38142
:1011F000E02D60E00995982F9695969596959E71AD
:10120000292F220F220F920F8F70890F8B8B8883CB
:1012100089859A85DC01ED91FC910280F381E02DB6
:1012200061E00995982F9695969596959E71292F30
:10123000220F220F920F8F70890F8C8B89838985E3
:101240009A85DC01ED91FC910280F381E02D62E052
:101250000995982F9695969596959E71292F220F10
:10126000220F920F8F70890F8D8B8B8389859A85C2
:10127000DC01ED91FC910280F381E02D63E00995A2
:10128000982F9695969596959E71292F220F220F4D
:10129000920F8F70890F8E8B8D8389859A85DC01E3
:1012A000ED91FC910280F381E02D64E00995982F87
:1012B0009695969596959E71292F220F220F920F43
:1012C0008F70890F8F8B8F8389859A85DC01ED91D3
:1012D000FC910280F381E02D65E00995982F9695A9
:1012E000969596959E71292F220F220F920F8F703F
:1012F000890F888F888789859A85DC01ED91FC911B
:101300000280F381E02D66E00995282F2F7021508F
:101310008695869586958E71982F990F990F890FCE
:10132000820F898F8E830E9472046AA37BA38CA391
:101330009DA3DF91CF9108954F925F926F927F921C
:101340008F929F92AF92BF92CF92DF92EF92FF92D5
:101350000F931F93CF93DF938C01C0902D02D090F9
:101360002E02E0902F02F09030020E9472046C1561
:101370007D058E059F0540F410922D0210922E02DD
:1013800010922F021092300220912B0230912C02E9
:101390002115310519F40E94ED08B1C080912D028C
:1013A00090912E02A0912F02B09130020097A105DA
:1013B000B10589F36C017D01C20ED31EE11CF11C45
:1013C0000E9472046C157D058E059F0520F70E9412
:1013D0007204C0902D02D0902E02E0902F02F09067
:1013E00030026C197D098E099F0928EE33E040E038
:1013F00050E00E94C80EC0912202D0912302C23058
:1014000009F0A2C18D2F90E083709927892B09F4F0
:1014100095C17CE1F72E80911E0229013A01480E08
:10142000511C611C711CC301B2012CE3822E912C52
:10143000A12CB12CA50194010E94C80E60930B024F
:1014400080911F0229013A01480E511C611C711C38
:10145000C301B201A50194010E94C80E60930C0261
:101460008091200259016A01A80EB11CC11CD11C37
:10147000C601B50128E130E040E050E00E94C80E0E
:1014800060930E0280912402820F873008F059C1C8
:10149000809311028091210229013A01480E511CCA
:1014A000611C711CC301B2014F2D50E09A012F5FE6
:1014B0003F4F032E000C440B550B0E94C80E620FC9
:1014C00060931002CA01B9016C0F711D811D911D3D
:1014D0002DE030E040E050E00E94C80E620F6093C3
:1014E0001202CA01B9016D0F711D811D911D24E603
:1014F00030E040E050E00E94C80E6093130220915B
:101500000E02822F6CE00E94A80E911101C09CE097
:1015100090930D0291E02C3008F490E090930F022C
:10152000F80101900020E9F731979F01201B310B52
:10153000C1E0C20FA0911802B091190290E0492FAA
:1015400050E04217530738F5FD0101900020E9F7FC
:1015500031977F01EA1AFB0A80E0400F511F682F84
:1015600070E06E157F05A8F46A0F7B1FFA01D08129
:10157000FB016081D6130BC0882349F08A3010F438
:10158000CF5F05C08C3010F4CE5F01C0CD5F8F5FA0
:10159000E6CF9F5FD4CF80911602909117020E94F0
:1015A000990F8C2F90E00E94040F90931702809364
:1015B0001602C0E0D0E08D2F90E0F80101900020ED
:1015C000E9F73197E01BF10B8E179F0708F09AC0DF
:1015D000F801E80FF91F9081E0911802F0911902CB
:1015E0008081981308C027E04C2F60E080911102A1
:1015F0000E949C0784C08181981307C080910F02CC
:1016000028E04C2F62E0880F0AC0828198130BC03B
:1016100080910F02880F28E04C2F62E08C5F0E94BF
:101620009C07CE5F6DC08381981306C024E04C2FC9
:1016300061E080911002F3CF8481981306C023E00B
:101640004C2F61E080910D02EACF8581981306C08E
:1016500023E04C2F61E080910E02E1CF8681981348
:1016600006C022E04C2F61E080910C02D8CF878128
:10167000981306C025E04C2F61E080911202CFCF75
:101680008085981306C021E04C2F61E080910B0209
:10169000C6CF8185981306C026E04C2F61E080916B
:1016A0001302BDCF8285981308C08091120290E08A
:1016B0000696982F990F25E008C0838598130CC0D3
:1016C00080911102982F990F27E04C2F63E0890F2A
:1016D0000E949C07CD5F14C08485981309C026E042
:1016E0004C2F64E0809113020E949C07CC5F08C0DD
:1016F000E0911602F0911702EC0FF11D9083CF5F7D
:10170000DF5F59CFE0911602F0911702EC0FF11D47
:1017100010828091160290911702DF91CF911F9154
:101720000F91FF90EF90DF90CF90BF90AF909F9080
:101730008F907F906F905F904F9008956DE1F62E9F
:101740006ACE10921102A6CE8C2F90E061E070E07C
:10175000C83010F460E070E0860F971F8170992701
:101760009EE1F92EF80E57CEBC01009791F0FC01D6
:1017700001900020E9F73197AF01481B590BE09128
:10178000BB01F091BC010280F381E02D8BEB91E075
:10179000099480E090E00895FC018091BA018111E4
:1017A00003C08FEF9FEF08959FB7F89482E0809376
:1017B000E9002091F20030E01216130614F421E043
:1017C00030E02115310559F0289884E68093B9015D
:1017D0008091F10080838091F200882319F09FBFEF
:1017E000C90108958BE68093E800F9CF2FB7F894EC
:1017F00083E08093E9009091E800892F807295FF43
:1018000004C09091F20080E4891B2FBF089580915D
:10181000350281110DC082E08093310284E0809313
:101820003202109234021092330281E0809335022A
:1018300081E392E00895362F90E0FC01EC56FE4FD4
:101840004491FC01EB58FE4F2491FC01EA5AFE4FF3
:101850008491882309F451C04423E1F150E0FA0156
:101860003197EF30F105B0F5EA5AFF4F0C94EA0ECC
:10187000909180009F7707C0909180009F7D03C06A
:1018800090918000977F9093800024C094B59F77BB
:1018900002C094B59F7D94BD1DC0909190009F772C
:1018A00007C0909190009F7D03C090919000977F1A
:1018B000909390000FC09091C0009F7703C09091CB
:1018C000C0009F7D9093C00005C09091C200977F9B
:1018D0009093C200E82FF0E0EE0FFF1FE85BFE4F91
:1018E000A591B4918FB7F894EC91311103C0209574
:1018F0002E2301C02E2B2C938FBF08958F929F9281
:10190000AF92BF92CF92DF92EF92FF926B017C0178
:101910000E9477074B015C01C114D104E104F1047A
:10192000F1F00E947707DC01CB0188199909AA0917
:10193000BB09883E9340A105B10570F321E0C21AAE
:10194000D108E108F10888EE880E83E0981EA11CFA
:10195000B11CC114D104E104F10419F7DDCFFF90EB
:10196000EF90DF90CF90BF90AF909F908F900895B1
:10197000CF92DF92EF92FF920F931F93CF93DF935B
:101980001F92CDB7DEB7182F062FE42E862F880FB3
:101990008E5F99830E94050183E00E940501F12E6C
:1019A000C12E9981D92E8C2D8F19801798F4F601AC
:1019B000E7FE02C0849101C080810E940501182FBA
:1019C00080E00E9405018123FFEFCF1ADF0A811119
:1019D000EACF01C081E00F90DF91CF911F910F916D
:1019E000FF90EF90DF90CF900895789484B5826057
:1019F00084BD84B5816084BD85B5826085BD85B5B3
:101A0000816085BD80916E00816080936E00109230
:101A100081008091810082608093810080918100AB
:101A2000816080938100809180008160809380003C
:101A300080919100826080939100809191008160FB
:101A400080939100809190008160809390008091BC
:101A5000C10084608093C1008091C1008260809346
:101A6000C1008091C10081608093C1008091C3005A
:101A700081608093C3008091C00082608093C00029
:101A80008091C20081608093C20080917A0084605E
:101A900080937A0080917A00826080937A008091AE
:101AA0007A00816080937A0080917A0080688093C8
:101AB0007A001092BA011092AD011092AE0180919D
:101AC000D70081608093D70080EA8093D80089B5E1
:101AD000806189BD89B5826089BD09B400FEFDCFF2
:101AE00061E070E080E090E00E947E0C8091D80080
:101AF0008F7C80618093D8008091E000807F80930C
:101B0000E0008091E1008E7E8093E1008DE0809383
:101B1000E200559A209A6CE271E080E090E00E9429
:101B20007E0C8FEF9FEF9093C8018093C701809147
:101B3000140290911502DC01ED91FC910190F0816D
:101B4000E02D099585E591E00E949C0980911402A1
:101B500090911502DC01ED91FC910480F581E02D5E
:101B600040E060E009958091140290911502DC013B
:101B7000ED91FC910480F581E02D47E261E009954B
:101B80008091140290911502DC01ED91FC9104808A
:101B9000F581E02D43E162E0099580911402909176
:101BA0001502DC01ED91FC910480F581E02D48E007
:101BB00063E009958091140290911502DC01ED918A
:101BC000FC910480F581E02D49E064E00995809165
:101BD000140290911502DC01ED91FC910480F581D5
:101BE000E02D48E165E0099580911402909115027D
:101BF000DC01ED91FC910480F581E02D47E066E089
:101C000009950E94ED0820910E02822F6CE00E943F
:101C1000A80E911101C09CE090930D0291E02C3030
:101C200008F490E090930F0288EEC82E83E0D82E3F
:101C3000E12CF12CC0E0D0E00E947204A7019601D3
:101C40000E94C80E672B682B692B81F483E491E016
:101C50000E949C090E94B40B83E591E00E94B40BA2
:101C600061E070E080E090E00E947E0C209721F31C
:101C70000E940000E1CFCF92DF92EF92FF92CF93CC
:101C8000DF93EBEBF1E01382128288EEC82E83E043
:101C9000D82EE12CF12CC482D582E682F7828BE229
:101CA00091E0918380838FEF9FEF95878487CBE0CE
:101CB000D2E01882198281E08A831B821C828D8384
:101CC0001E828F83188681E090E00E94040F9C871B
:101CD0008B8786E591E09E878D8784E691E0988BDF
:101CE0008F878DE691E09A8B898B1A8ECB8EDC8E56
:101CF000ED8EFE8E85E18F8F19A218A21AA21BA26B
:101D00001CA21DA282E190E00E94040F2DE331E0AD
:101D1000FC013183208328E6228327E0E9E1F1E01A
:101D2000DC01139601900D922A95E1F727E0E0E29D
:101D3000F1E0DC011A9601900D922A95E1F79A875D
:101D40008987DF91CF91FF90EF90DF90CF9008953A
:101D5000991B79E004C0991F961708F0961B881FFD
:101D60007A95C9F78095089597FB072E16F400948D
:101D700007D077FD09D00E94F00E07FC05D03EF495
:101D8000909581959F4F0895709561957F4F089527
:101D9000A1E21A2EAA1BBB1BFD010DC0AA1FBB1F6F
:101DA000EE1FFF1FA217B307E407F50720F0A21BE1
:101DB000B30BE40BF50B661F771F881F991F1A944E
:101DC00069F760957095809590959B01AC01BD0178
:101DD000CF010895EE0FFF1F0590F491E02D0994B7
:101DE000AA1BBB1B51E107C0AA1FBB1FA617B70741
:101DF00010F0A61BB70B881F991F5A95A9F780955D
:101E00009095BC01CD010895CF93DF938230910569
:101E100010F482E090E0E0913F02F091400220E077
:101E200030E0C0E0D0E0309711F140815181481797
:101E30005907C0F04817590761F4828193812097B0
:101E400019F09B838A832BC09093400280933F02BA
:101E500026C02115310519F04217530718F49A01CD
:101E6000BE01DF01EF010280F381E02DDCCF2115FF
:101E7000310509F1281B390B2430310590F41296F5
:101E80008D919C9113976115710521F0FB0193834E
:101E9000828304C09093400280933F02FD013296FA
:101EA00044C0FD01E20FF31F819391932250310949
:101EB0002D933C933AC020913D0230913E02232B5A
:101EC00041F420910E0130910F0130933E02209396
:101ED0003D0220910C0130910D012115310541F495
:101EE0002DB73EB74091100150911101241B350BC5
:101EF000E0913D02F0913E02E217F307A0F42E1BA1
:101F00003F0B2817390778F0AC014E5F5F4F24175D
:101F1000350748F04E0F5F1F50933E0240933D023D
:101F20008193919302C0E0E0F0E0CF01DF91CF9187
:101F300008950F931F93CF93DF93009709F48CC0FC
:101F4000FC0132971382128200913F0210914002ED
:101F50000115110581F420813181820F931F209199
:101F60003D0230913E022817390779F5F0933E0281
:101F7000E0933D0271C0D80140E050E0AE17BF07CA
:101F800050F412962D913C911397AD012115310516
:101F900009F1D901F3CF9D01DA01338322836081F6
:101FA0007181860F971F8217930769F4EC012881CE
:101FB0003981260F371F2E5F3F4F318320838A815F
:101FC0009B8193838283452B29F4F0934002E09315
:101FD0003F0242C01396FC93EE931297ED01499194
:101FE00059919E01240F351FE217F30771F4808188
:101FF0009181840F951F029611969C938E938281F6
:10200000938113969C938E931297E0E0F0E0D801B1
:1020100012968D919C911397009719F0F8018C01FD
:10202000F6CF8D919C9198012E5F3F4F820F931FA9
:1020300020913D0230913E022817390769F430970C
:1020400029F41092400210923F0202C013821282C1
:1020500010933E0200933D02DF91CF911F910F91AB
:10206000089581E090E0F8940C943610F894FFCF36
:10207000FFFFFFFF00E10000000000000000410240
:10208000800000C1808100000000010204050603F9
:102090007F7F3F3F1FFF0700000000920119039E52
:1020A00003A801B301A203C00300000000E403FE83
:1020B00002AB02642D6D2D592C20483A693A732CDD
:1020C0002044000D0A00776141646848696D7379A6
:1020D0004D445900616D706D414D504D0053756E0A
:1020E0004D6F6E54756557656454687546726953D3
:1020F00061744A616E4665624D61724170724D61F4
:10210000794A756E4A756C4175675365704F637493
:082110004E6F76446563000088
:00000001FF
