:100000000C9462000C948A000C948A000C948A0070
:100010000C948A000C948A000C948A000C948A0038
:100020000C948A000C948A000C948A000C948A0028
:100030000C948A000C948A000C948A000C948A0018
:100040000C94D6070C948A000C9446080C94200853
:100050000C948A000C948A000C948A000C948A00F8
:100060000C948A000C948A000000000024002700F1
:100070002A0000000000250028002B0000000000DE
:1000800023002600290004040404040404040202DA
:100090000202020203030303030301020408102007
:1000A0004080010204081020010204081020000012
:1000B0000008000201000003040700000000000027
:1000C0000000780811241FBECFEFD8E0DEBFCDBFFF
:1000D00022E0A4E9B1E001C01D92AD36B207E1F71C
:1000E00011E0A0E0B1E0E6E9F6E102C005900D9272
:1000F000A439B107D9F710E0C2E6D0E004C02197D7
:10010000FE010E94110AC136D107C9F70E940B09EE
:100110000C94490B0C940000FC01538D448D252F49
:1001200030E0842F90E0821B930B541710F0CF9691
:10013000089501970895FC01918D828D981761F0C3
:10014000828DDF01A80FB11D5D968C91928D9F5F0E
:100150009F73928F90E008958FEF9FEF0895FC01B9
:10016000918D828D981731F0828DE80FF11D858D6C
:1001700090E008958FEF9FEF0895FC01918D228DFF
:10018000892F90E0805C9F4F821B91098F73992784
:100190000895FC01848DDF01A80FB11DA35ABF4F44
:1001A0002C91848D90E001968F739927848FA68976
:1001B000B7892C93A089B1898C91837080648C93CA
:1001C000938D848D981306C00288F389E02D808179
:1001D0008F7D80830895EF92FF920F931F93CF93AB
:1001E000DF93EC0181E0888F9B8D8C8D981305C087
:1001F000E889F989808185FD26C0F62E0B8D10E0F7
:100200000F5F1F4F0F731127E02E8C8DE8120CC06B
:100210000FB607FCFACFE889F989808185FFF5CF11
:10022000CE010E94C900F1CF8B8DFE01E80FF11DB8
:10023000E35AFF4FF0829FB7F8940B8FEA89FB894E
:10024000808180620AC09FB7F894EE89FF8960833D
:10025000E889F98980818370806480839FBF81E011
:1002600090E0DF91CF911F910F91FF90EF90089553
:10027000CF93DF93EC01888D8823C9F0EA89FB894D
:10028000808185FD05C0A889B9898C9186FD0FC044
:100290000FB607FCF5CF808185FFF2CFA889B98919
:1002A0008C9185FFEDCFCE010E94C900E7CFDF9191
:1002B000CF9108958DE991E00E94BD0021E0892B46
:1002C00009F420E0822F089580E090E0892B29F046
:1002D0000E945A0181110C9400000895833081F02E
:1002E00028F4813099F08230A1F008958730A9F088
:1002F0008830B9F08430D1F4809180008F7D03C0C4
:10030000809180008F7780938000089584B58F77E7
:1003100002C084B58F7D84BD08958091B0008F7731
:1003200003C08091B0008F7D8093B0000895CF937B
:10033000DF93282F30E0F901E255FF4F8491F90156
:10034000E656FF4FD491F901EA57FF4FC491CC23F1
:1003500091F081110E946E01EC2FF0E0EE0FFF1F73
:10036000E458FF4FA591B491EC91ED2381E090E02A
:1003700021F480E002C080E090E0DF91CF91089509
:100380001F93CF93DF93282F30E0F901E255FF4F01
:100390008491F901E656FF4FD491F901EA57FF4FD6
:1003A000C491CC23C9F0162F81110E946E01EC2F4D
:1003B000F0E0EE0FFF1FEE58FF4FA591B4918FB7FD
:1003C000F894111105C09C91ED2FE095E92302C02E
:1003D000EC91ED2BEC938FBFDF91CF911F9108959E
:1003E000CF93DF93C0E6D2E060E08D810E94C00130
:1003F00060E08E810E94C00161E08D810E94C00199
:1004000061E08E81DF91CF910C94C001CF93DF9397
:10041000C0E6D2E061E08E810E94C00160E08E8182
:100420000E94C00160E08D81DF91CF910C94C001EA
:10043000CF93DF9390E0FC01E656FF4F2491FC013F
:10044000EA57FF4F8491882361F190E0880F991F4C
:10045000FC01E859FF4FC591D491FC01EE58FF4FC4
:10046000A591B491611109C09FB7F8948881209536
:1004700082238883EC912E230BC0623061F49FB7F6
:10048000F8943881822F809583238883EC912E2BDA
:100490002C939FBF06C08FB7F894E8812E2B28833A
:1004A0008FBFDF91CF910895EF92FF921F93CF936B
:1004B000DF93182FD8E087E0E82EF12C60E08091E0
:1004C00065020E94C00110FF02C061E001C060E04F
:1004D000809166020E94C001C7010197F1F715954E
:1004E00061E0809165020E94C001C7010197F1F7A8
:1004F000D15021F760E0809165020E94C00161E067
:10050000809166020E94C00161E0809165020E94B4
:10051000C00160E0809166020E941802809166022C
:100520000E949701892B79F0CF5FC83C91F761E079
:10053000809166020E94180260E0809166020E942B
:10054000C001C0E0E6CF61E080916602DF91CF910B
:100550001F91FF90EF900C941802CF93DF93D82F48
:1005600080916302811102C0C0E001C0C0E86F3712
:1005700039F0E62F660FFF0BEC5EFE4F9081C90F3E
:100580000E94060284E40E9454020E94F0010E942C
:1005900006028D2F806C0E9454028C2F0E94540200
:1005A0000E94F0010E940602809162020E945402A1
:1005B000DF91CF910C94F0013FB7F89480919901AD
:1005C00090919A01A0919B01B0919C0126B5A89BA6
:1005D00005C02F3F19F00196A11DB11D3FBFBA2FD5
:1005E000A92F982F8827820F911DA11DB11DBC0135
:1005F000CD0142E0660F771F881F991F4A95D1F7FA
:1006000008952FB7F89460919501709196018091AB
:100610009701909198012FBF0895CF92DF92EF92AA
:10062000FF920F931F93CF93DF93C82FD62F042FE2
:1006300011E080915402821310E00E940103C090E7
:100640005502D0905602E0905702F0905802A70150
:1006500096010E94DB09F694E794D794C7946C1531
:100660007D058E059F0508F442C0D23009F442C0D2
:1006700028F4DD2351F0D13011F115C1D33009F444
:1006800067C0D43009F4B1C00EC1E0914502F091C9
:100690004602E00FF11D111105C0C73008F0C6E099
:1006A000C05D01C0C0E2C083FEC0D33008F04CC0C2
:1006B000DD2309F4EEC0D13009F0F5C010E0C436F6
:1006C00008F0C3E6202F30E0E0914502F0914602A9
:1006D000E20FF31F111106C08C2F6AE00E94BB09C4
:1006E000805D01C080E280832F5F3F4FC1C0D23068
:1006F000E1F610E0C73008F0C6E0202F30E0E091CE
:100700004502F0914602E20FF31F111108C0A091BB
:100710004902B0914A02AC0FB11D8C9101C080E238
:1007200080832F5F3F4FE0914502F0914602E20F38
:10073000F31F111153C0A0914902B0914A02AC0FAE
:10074000B11D11968C914BC0D33009F04AC010E016
:10075000C73308F0C6E3E02FF0E0A0914502B09166
:1007600046029D012E0F3F1F111109C080914B02BF
:1007700090914C028C0F911DDC018C9101C080E2A4
:10078000D9018C93A0914502B0914602CF01019608
:100790009D01280F391F11110AC080914B029091C1
:1007A0004C028C0F911DDC0111968C9101C080E2EE
:1007B000D9018C939F012E5F3F4FE0914502F0914C
:1007C0004602E20FF31F111109C0A0914B02B09134
:1007D0004C02AC0FB11D12968C9101C080E2808357
:1007E00062C0D43009F05FC010E0C43608F0C3E640
:1007F000202F30E0E0914502F0914602E20FF31F16
:1008000011110AC08091590290E001976AE070E0EE
:100810000E94C709605D01C060E26083E09145020B
:10082000F0914602C9010196E80FF91F11110AC0A3
:100830008091590290E001976AE070E00E94C70938
:10084000805D01C080E28083E0914502F091460224
:10085000C9010296E80FF91F111106C08C2F6AE03A
:100860000E94BB09805D01C080E280832D5F3F4F05
:10087000E0914502F0914602E20FF31F111106C00C
:100880008C2F6AE00E94BB09905D01C090E29083CA
:100890000AC0C73008F0C6E0E0914502F091460278
:1008A000E00FF11DFDCEDF91CF911F910F91FF90D1
:1008B000EF90DF90CF900895CF93DF93CAE3D2E01B
:1008C00089859A85DC01ED91FC910280F381E02D10
:1008D00060E00995982F9695969596959E71292F8B
:1008E000220F220F920F8F70890F8B8B888389853F
:1008F0009A85DC01ED91FC910280F381E02D61E0AD
:100900000995982F9695969596959E71292F220F69
:10091000220F920F8F70890F8C8B898389859A851E
:10092000DC01ED91FC910280F381E02D62E00995FC
:10093000982F9695969596959E71292F220F220FA6
:10094000920F8F70890F8D8B8B8389859A85DC013F
:10095000ED91FC910280F381E02D63E00995982FE1
:100960009695969596959E71292F220F220F920F9C
:100970008F70890F8E8B8D8389859A85DC01ED912F
:10098000FC910280F381E02D64E00995982F969503
:10099000969596959E71292F220F220F920F8F7098
:1009A000890F8F8B8F8389859A85DC01ED91FC916E
:1009B0000280F381E02D65E00995982F9695969534
:1009C00096959E71292F220F220F920F8F70890FFB
:1009D000888F888789859A85DC01ED91FC9102805A
:1009E000F381E02D66E00995282F2F702150869520
:1009F000869586958E71982F990F990F890F820F82
:100A0000898F8E830E9401036AA37BA38CA39DA37D
:100A1000DF91CF910895CF92DF92EF92FF920F93E3
:100A20001F93CF93DF936C017A018B01C0E0D0E07C
:100A3000CE15DF0589F0D8016D918D01D601ED91BC
:100A4000FC910190F081E02DC6010995892B11F4EC
:100A50007E0102C02196ECCFC701DF91CF911F919B
:100A60000F91FF90EF90DF90CF900895089580E070
:100A700090E008958093BB0084E88093BC0081E6F9
:100A80009AEE2091BC0027FD03C00197D1F706C064
:100A90009091B900987F81E0983209F080E0089544
:100AA000880F860F8093BB0084E88093BC0081E6AA
:100AB0009AEE2091BC0027FD03C00197D1F711C029
:100AC0008091B900887F803421F4662311F081E0A1
:100AD00008959091B900987F983119F481E08627A4
:100AE000089580E0089584E98093BC0081E69AEE41
:100AF0002091BC0024FD02C00197D1F78BE490E067
:100B00000197F1F7089584EA8093BC0081E69AEE9C
:100B10002091BC0027FD03C00197D1F706C090913A
:100B2000B900987F81E0983009F080E00895FF9245
:100B30000F931F93CF93DF93EC01F62E042F11E058
:100B4000198B0E9483058823B9F0198B60E08A8194
:100B50000E945005882381F082E0898B8F2D0E94AE
:100B60003A05882349F083E0898B802F0E943A055B
:100B7000882311F084E0898B0E94730581E09989B4
:100B8000943009F080E0DF91CF911F910F91FF9099
:100B900008951F93CF93DF93EC01162F81E0898B8B
:100BA0000E948305882379F160E08A810E945005C4
:100BB000882349F1812F0E943A05882321F184EA94
:100BC0008093BC0081E69AEE2091BC0027FD03C013
:100BD0000197D1F718C08091B900887F803199F4CE
:100BE00061E08A810E945005882369F084E880933F
:100BF000BC0081E69AEE2091BC0027FD0BC0019756
:100C0000D1F780E0898B0E9473058989DF91CF91AC
:100C10001F9108958091B9008091B900887F88352F
:100C200081F78091BB00EECF0F931F93CF93DF939B
:100C3000EC01062F142FE881F9810280F381E02D69
:100C40000995898BFE01E00FF11D9285492F409592
:100C50004823142B982B412F49236381CE01DF9128
:100C6000CF911F910F910C949705CF92DF92EF9245
:100C7000FF920F931F93CF93DF93EC01162F0E94E7
:100C8000DC026B017C010E94DC02AB01BC014C194F
:100C90005D096E097F09483E53406105710598F36F
:100CA000CE01810F911D8C01FC016381CE010E9458
:100CB000C905F80192858923DF91CF911F910F918A
:100CC000FF90EF90DF90CF900895CF93DF93EC01EA
:100CD00060E082E10E94180260E083E10E94180255
:100CE00061E082E10E94C00161E083E10E94C001F5
:100CF00088E48093B8008091B8008A3018F48AE0C4
:100D00008093B8008091B9008C7F8093B90062E035
:100D1000CE010E94C905898B86FF06C0482F4F7BF4
:100D200062E0CE010E9497056EE0CE010E94C905E7
:100D3000898B982F9F7D31F0482F40726EE0CE0155
:100D40000E9497056FE0CE010E94C905898B982FFC
:100D5000937811F483FD09C08477482F48606FE0D1
:100D6000CE01DF91CF910C949705DF91CF9108953B
:100D70008F929F92AF92BF92CF92DF92EF92FF92AB
:100D80001F93CF93DF93C0905C02D0905D02E09000
:100D90005E02F0905F020E9401036C157D058E05D6
:100DA0009F0540F410925C0210925D0210925E0268
:100DB00010925F0220915A0230915B022115310599
:100DC00019F40E945C04AFC080915C0290915D02B6
:100DD000A0915E02B0915F020097A105B10589F371
:100DE0006C017D01C20ED31EE11CF11C0E940103A7
:100DF0006C157D058E059F0520F70E940103C090AC
:100E00005C02D0905D02E0905E02F0905F026C198F
:100E10007D098E099F0928EE33E040E050E00E94F2
:100E2000DB09D091510210915202D23009F0ADC0CD
:100E3000812F90E083709927892B09F4A1C0CCE120
:100E400080914D0249015A01880E911CA11CB11CD0
:100E5000C501B4012CE3C22ED12CE12CF12CA70149
:100E600096010E94DB0960933A0280914E0249018B
:100E70005A01880E911CA11CB11CC501B401A70127
:100E800096010E94DB0960933B0280914F02590159
:100E90006A01A80EB11CC11CD11CC601B50128E114
:100EA00030E040E050E00E94DB0960933D02809119
:100EB0005302820F873008F065C080934002809112
:100EC000500269017A01C80ED11CE11CF11CC70156
:100ED000B6012C2F30E02F5F3F4F032E000C440B48
:100EE000550B0E94DB09620F60933F02CA01B901F2
:100EF0006D0F711D811D911D2DE030E040E050E02F
:100F00000E94DB09620F60934102CA01B901610FBF
:100F1000711D811D911D24E630E040E050E00E94EB
:100F2000DB096093420220913D02822F6CE00E9417
:100F3000BB09911101C09CE090933C0291E02C30E0
:100F400008F490E090933E02809145029091460211
:100F50000E94AC0A81E090E00E94170A909346023A
:100F600080934502FC011082DF91CF911F91FF9089
:100F7000EF90DF90CF90BF90AF909F908F900895AB
:100F8000CDE15ECF109240029ACF6D2F70E081E0EC
:100F900090E0D83010F480E090E0860F971F8170C9
:100FA0009927CEE1C80F4CCF0E94440B1F920F929D
:100FB0000FB60F9211242F933F938F939F93AF936C
:100FC000BF938091950190919601A0919701B09166
:100FD00098013091940123E0230F2D3720F40196DE
:100FE000A11DB11D05C026E8230F0296A11DB11D4C
:100FF000209394018093950190939601A09397017B
:10100000B09398018091990190919A01A0919B01D0
:10101000B0919C010196A11DB11D809399019093FF
:101020009A01A0939B01B0939C01BF91AF919F91B6
:101030008F913F912F910F900FBE0F901F90189599
:101040001F920F920FB60F9211242F933F934F933D
:101050005F936F937F938F939F93AF93BF93EF9320
:10106000FF938DE991E00E94C900FF91EF91BF913C
:10107000AF919F918F917F916F915F914F913F9130
:101080002F910F900FBE0F901F9018951F920F92E7
:101090000FB60F9211242F938F939F93EF93FF938B
:1010A000E091AD01F091AE018081E091B301F0914A
:1010B000B40182FD12C090818091B6018F5F8F7361
:1010C0002091B701821751F0E091B601F0E0E356AC
:1010D000FE4F958F8093B60101C08081FF91EF9103
:1010E0009F918F912F910F900FBE0F901F90189589
:1010F000CF92DF92EF92FF92CF93DF93EDE9F1E091
:101100001382128288EEC82E83E0D82EE12CF12CB7
:10111000C482D582E682F7828AE291E0918380835D
:1011200085EC90E09587848784EC90E097878687AC
:1011300080EC90E0918B808B81EC90E0938B828BA4
:1011400082EC90E0958B848B86EC90E0978B868B7D
:10115000118E128E138E148EC0E6D2E083E08D8342
:1011600082E08E8361E083E00E94180261E08E815C
:101170000E941802CAE3D2E01882198281E08A83B1
:101180001B821C828D831E828F83188681E090E0F3
:101190000E94170A9C878B8782E491E09E878D8747
:1011A00080E591E0988B8F8789E591E09A8B898B18
:1011B0001A8ECB8EDC8EED8EFE8E85E18F8F19A27E
:1011C00018A21AA21BA21CA21DA282E190E00E94FA
:1011D000170A2CE331E0FC013183208328E62283C7
:1011E00027E0E6E0F1E0DC01139601900D922A95EC
:1011F000E1F727E0EDE0F1E0DC011A9601900D92B5
:101200002A95E1F79A878987DF91CF91FF90EF9038
:10121000DF90CF900895CF93DF931F92CDB7DEB7C5
:10122000789484B5826084BD84B5816084BD85B5C1
:10123000826085BD85B5816085BD80916E008160CD
:1012400080936E0010928100809181008260809373
:101250008100809181008160809381008091800075
:101260008160809380008091B10084608093B100A0
:101270008091B00081608093B00080917A0084609A
:1012800080937A0080917A00826080937A008091C6
:101290007A00816080937A0080917A0080688093E0
:1012A0007A001092C1001092640281E0809368027B
:1012B00083E0809367026FE780E00E94AD026FE7F2
:1012C00081E00E94AD026FE782E00E94AD026FE70D
:1012D00083E00E94AD0280E48093600280EC809302
:1012E00061028FE8809362028091430290914402F0
:1012F000DC01ED91FC910190F081E02D09950E94B7
:10130000B80662E084E00E9418020AE00E94B80673
:1013100080913D0210913B02602F0E94BB09682F13
:1013200080E099830E94AD029981692F81E00E943B
:10133000AD02812F602F0E94BB09682F82E0998344
:101340000E94AD029981692F83E00E94AD0284E082
:101350000E94970120916402019729F4211108C08D
:101360001092630205C0211103C081E080936302E3
:101370000E946401CBCF991B79E004C0991F961796
:1013800008F0961B881F7A95C9F78095089597FBFA
:10139000072E16F4009407D077FD09D00E94FD09AE
:1013A00007FC05D03EF4909581959F4F0895709568
:1013B00061957F4F0895A1E21A2EAA1BBB1BFD0168
:1013C0000DC0AA1FBB1FEE1FFF1FA217B307E40724
:1013D000F50720F0A21BB30BE40BF50B661F771F7C
:1013E000881F991F1A9469F760957095809590955C
:1013F0009B01AC01BD01CF010895AA1BBB1B51E1AC
:1014000007C0AA1FBB1FA617B70710F0A61BB70B74
:10141000881F991F5A95A9F780959095BC01CD0119
:101420000895EE0FFF1F0590F491E02D0994CF93DE
:10143000DF938230910510F482E090E0E0916B023E
:10144000F0916C0220E030E0C0E0D0E0309711F184
:101450004081518148175907C0F04817590761F476
:1014600082819381209719F09B838A832BC090936C
:101470006C0280936B0226C02115310519F04217CA
:10148000530718F49A01BE01DF01EF010280F381D6
:10149000E02DDCCF2115310509F1281B390B243053
:1014A000310590F412968D919C91139761157105F9
:1014B00021F0FB019383828304C090936C0280939C
:1014C0006B02FD01329644C0FD01E20FF31F8193D0
:1014D0009193225031092D933C933AC02091690297
:1014E00030916A02232B41F42091020130910301D3
:1014F00030936A022093690220910001309101012A
:101500002115310541F42DB73EB7409104015091AA
:101510000501241B350BE0916902F0916A02E21784
:10152000F307A0F42E1B3F0B2817390778F0AC0106
:101530004E5F5F4F2417350748F04E0F5F1F5093E3
:101540006A02409369028193919302C0E0E0F0E067
:10155000CF01DF91CF9108950F931F93CF93DF9326
:10156000009709F48CC0FC0132971382128200911B
:101570006B0210916C020115110581F420813181FB
:10158000820F931F2091690230916A022817390750
:1015900079F5F0936A02E093690271C0D80140E0E6
:1015A00050E0AE17BF0750F412962D913C9113975F
:1015B000AD012115310509F1D901F3CF9D01DA0102
:1015C0003383228360817181860F971F821793076F
:1015D00069F4EC0128813981260F371F2E5F3F4FB8
:1015E000318320838A819B8193838283452B29F4D5
:1015F000F0936C02E0936B0242C01396FC93EE935F
:101600001297ED01499159919E01240F351FE21760
:10161000F30771F480819181840F951F02961196D2
:101620009C938E938281938113969C938E931297B1
:10163000E0E0F0E0D80112968D919C91139700970D
:1016400019F0F8018C01F6CF8D919C9198012E5FD5
:101650003F4F820F931F2091690230916A02281731
:10166000390769F4309729F410926C0210926B02DA
:1016700002C01382128210936A0200936902DF9102
:10168000CF911F910F91089581E090E0F8940C9410
:06169000490BF894FFCFA6
:1016960000006D028000000102040506037F7F3F03
:1016A6003F1FFF073F065B4F666D7D077F6F777CA9
:1016B600395E7971400000000000EB000B058C00DC
:1016C6003801BD009B00AF0000000000650635062E
:1016D6001406776141646848696D73794D44590011
:1016E600616D706D414D504D0053756E4D6F6E546A
:1016F60075655765645468754672695361744A61C5
:101706006E4665624D61724170724D61794A756EC1
:101716004A756C4175675365704F63744E6F7644B6
:0417260065630000F7
:00000001FF
